:020000040800F2
:1000000000800020D56C0008476D0008516D000885
:1000100000000000000000000000000000000000E0
:10002000000000000000000000000000C107000800
:10003000000000000000000095080008DD0800082E
:10004000456D000800000000456D0008456D000882
:10005000456D0008456D0008456D0008456D0008B8
:1000600000000000456D0008456D0008456D000862
:10007000456D0008456D0008456D00080000000052
:10008000456D0008456D0008456D0008456D000888
:10009000456D0008456D0008456D0008456D000878
:1000A000456D0008456D0008456D00081172000897
:0C00B000456D00088D760008000000007F
:1000BC0010B5064C2378002B07D1054B002B02D032
:1000CC00044800E000BF0123237010BDB0020020E3
:1000DC00000000003C970008044B10B5002B03D027
:1000EC000349044800E000BF10BDC04600000000FA
:1000FC00B40200203C97000802780B78002A03D049
:10010C00013001319A42F7D0D01A70470023C25CFB
:10011C000133002AFBD1581E70470000002243080F
:10012C008B4274D303098B425FD3030A8B4244D3B3
:10013C00030B8B4228D3030C8B420DD3FF220902F5
:10014C0012BA030C8B4202D31212090265D0030BB4
:10015C008B4219D300E0090AC30B8B4201D3CB03AA
:10016C00C01A5241830B8B4201D38B03C01A5241EC
:10017C00430B8B4201D34B03C01A5241030B8B42EE
:10018C0001D30B03C01A5241C30A8B4201D3CB02D9
:10019C00C01A5241830A8B4201D38B02C01A5241BE
:1001AC00430A8B4201D34B02C01A5241030A8B42C1
:1001BC0001D30B02C01A5241CDD2C3098B4201D3D9
:1001CC00CB01C01A524183098B4201D38B01C01A57
:1001DC00524143098B4201D34B01C01A52410309CE
:1001EC008B4201D30B01C01A5241C3088B4201D37D
:1001FC00CB00C01A524183088B4201D38B00C01A2A
:10020C00524143088B4201D34B00C01A5241411A50
:10021C0000D20146524110467047FFE701B500205D
:10022C0000F0F0F802BDC0460029F7D076E7704721
:10023C0003460B437FD4002243088B4274D303093B
:10024C008B425FD3030A8B4244D3030B8B4228D3DC
:10025C00030C8B420DD3FF22090212BA030C8B4202
:10026C0002D31212090265D0030B8B4219D300E0A2
:10027C00090AC30B8B4201D3CB03C01A5241830B27
:10028C008B4201D38B03C01A5241430B8B4201D3D7
:10029C004B03C01A5241030B8B4201D30B03C01A00
:1002AC005241C30A8B4201D3CB02C01A5241830A7A
:1002BC008B4201D38B02C01A5241430A8B4201D3A9
:1002CC004B02C01A5241030A8B4201D30B02C01AD3
:1002DC005241CDD2C3098B4201D3CB01C01A52413A
:1002EC0083098B4201D38B01C01A524143098B42C3
:1002FC0001D34B01C01A524103098B4201D30B01AC
:10030C00C01A5241C3088B4201D3CB00C01A5241D0
:10031C0083088B4201D38B00C01A524143088B4295
:10032C0001D34B00C01A5241411A00D2014652412E
:10033C00104670475DE0CA0F00D04942031000D34D
:10034C004042534000229C4603098B422DD3030AA2
:10035C008B4212D3FC22890112BA030A8B420CD3B2
:10036C00890192118B4208D3890192118B4204D3DB
:10037C0089013AD0921100E08909C3098B4201D35B
:10038C00CB01C01A524183098B4201D38B01C01A95
:10039C00524143098B4201D34B01C01A524103090C
:1003AC008B4201D30B01C01A5241C3088B4201D3BB
:1003BC00CB00C01A524183088B4201D38B00C01A68
:1003CC005241D9D243088B4201D34B00C01A52413F
:1003DC00411A00D20146634652415B10104601D3CC
:1003EC004042002B00D54942704763465B1000D356
:1003FC00404201B5002000F005F802BD0029F8D0FC
:10040C0016E770477047C046002B11D1002A0FD158
:10041C00002900D1002802D00021C943081C07B4D0
:10042C00024802A14018029003BDC046D9FFFFFF4D
:10043C0003B4684601B5029800F006F8019B9E468D
:10044C0002B00CBC7047C046F0B557464E46454608
:10045C00DE46E0B5040083B00D00924699468B420F
:10046C002FD82CD04946504600F0AEF82900060093
:10047C00200000F0A9F8331A9846203B9B4600D583
:10048C0074E053465A4693401F00534642469340ED
:10049C001E00AF4229D826D05B46A41BBD41002BC1
:1004AC0000DA79E0002200230092019301235A46DE
:1004BC0093400193012342469340009319E08242FA
:1004CC00D0D900220023009201930C9B002B01D069
:1004DC001C605D600098019903B03CBC9046994645
:1004EC00A246AB46F0BDA342D6D90022002300920F
:1004FC0001934346002BE8D0FB0772081A4346468B
:10050C007B080EE0AB4201D1A2420CD8A41A9D414B
:10051C00012024196D410021013E24184D41002E6B
:10052C0006D0AB42EED9013E24196D41002EF8D114
:10053C005B460098019900196941002B22DB2B00C6
:10054C005A46D3402A004446E2401C005B46150044
:10055C00002B2CDB26009E40330026004746BE4075
:10056C003200801A994100900191AEE74246202357
:10057C009B1A5246DA40414613004A468A401700FD
:10058C001F4382E7424620239B1A2A0046469A4084
:10059C002300F3401343D5E74246202300219B1A46
:1005AC000022009101920122DA40019282E7424638
:1005BC00202326009B1ADE402F00B4469740664647
:1005CC003B003343C9E7C04610B5002903D100F006
:1005DC0007F8203002E0081C00F002F810BDC046FD
:1005EC001C2101231B04984201D3000C10391B0A57
:1005FC00984201D3000A08391B09984201D300091B
:10060C00043902A2105C40187047C0460403020271
:10061C0001010101000000000000000080B582B063
:10062C0000AF78607B6808331A007B685A607B687F
:10063C00012252429A607B6808331A007B68DA60A8
:10064C007B6808331A007B681A617B6800221A6089
:10065C00C046BD4602B080BD80B582B000AF7860A8
:10066C007B6800221A61C046BD4602B080BD80B5D1
:10067C0084B000AF786039607B685B68FB60FB68B6
:10068C005A683B685A607B685A683B689A60FB689A
:10069C005B683A689A60FB683A685A607B683A68AB
:1006AC005A603B687A681A617B681B685A1C7B68C5
:1006BC001A60C046BD4604B080BD80B584B000AFA2
:1006CC00786039603B681B68BB60BB68013303D141
:1006DC007B681B69FB600CE07B680833FB6002E005
:1006EC00FB685B68FB60FB685B681A68BB689A42D6
:1006FC00F6D9FB685A683B685A603B685B683A6895
:10070C009A603B68FA689A60FB683A685A603B6882
:10071C007A681A617B681B685A1C7B681A60C04631
:10072C00BD4604B080BD80B584B000AF78607B68F6
:10073C005B687A6892689A607B689B687A68526892
:10074C005A607B681B69FB60FB685A687B689A423D
:10075C0003D17B689A68FB685A607B6800221A6137
:10076C00FB681B685A1EFB681A60C046BD4604B085
:10077C0080BD80B584B000AFF860B9607A60FB686A
:10078C00043BFB60FB68802252041A60FB68043B4C
:10079C00FB60BA68FB681A60FB68183BFB607A6800
:1007AC00FB681A60FB68203BFB60FB681800BD46C9
:1007BC0004B080BD084B196808681030F0C8A0461A
:1007CC00A946B246BB4680F309882038F0C871466A
:1007DC000D2001430847C046D41E0020C046C04629
:1007EC000020006880F3088862B600DFC046C0466F
:1007FC0080B500AF0C4B0C4A1268FF2109040A4368
:10080C001A60094B084A1268FF2109060A431A604C
:10081C0000F072F8054B00221A60FFF7E1FF00238D
:10082C001800BD4680BDC04620ED00E00000002051
:10083C0080B500AF034B802252051A60C046BD46FE
:10084C0080BDC04604ED00E080B500AF72B6044B2D
:10085C001B685A1C024B1A60C046BD4680BDC04680
:10086C000000002080B500AF064B1B685A1E054BDC
:10087C001A60044B1B68002B00D162B6C046BD4603
:10088C0080BDC04600000020EFF309800E4B1A68B3
:10089C0020381060F0C044464D4656465F46F0C0C6
:1008AC0008B572B600F0A0FE62B60CBC1168086800
:1008BC001030F0C8A046A946B246BB4680F3098862
:1008CC002038F0C81847C046D41E0020C046C04689
:1008DC0080B582B000AF074B802252051A6000230E
:1008EC007B6072B600F0DAFD62B6C046BD4602B05F
:1008FC0080BDC04604ED00E080B500AF044B054A56
:10090C001A60054B07221A60C046BD4680BDC04622
:10091C0014E000E0BF5D000010E000E080B584B0A2
:10092C0000AF78600023FB607B680722134004D083
:10093C007B680722934308337B6000F011FD134B57
:10094C001A687B68D318124A934212D80F4B1A6854
:10095C007B68D2180D4B1B689A420AD90B4B1A684C
:10096C000C4BD318FB60094B1A687B68D218074BE9
:10097C001A6000F001FDFB68002B01D105F096FB1D
:10098C00FB681800BD4604B080BDC046D01E0020D8
:10099C00FF1B0000D002002080B582B000AF786051
:1009AC00C046BD4602B080BD80B500AF034B1B688E
:1009BC00E0225201D31A1800BD4680BDD01E002083
:1009CC0080B582B000AF786039607B68002B01D1B4
:1009DC0072B6FEE7FFF738FF7B681A687B68D96B45
:1009EC007B681B6C4B43D2187B685A607B68002277
:1009FC009A637B681A687B689A607B681A687B6864
:100A0C00DB6B591E7B681B6C4B43D2187B68DA601E
:100A1C007B68012252425A647B68012252429A64DA
:100A2C003B68002B0ED17B681B69002B14D07B68B4
:100A3C001033180000F0AEFE0300012B0CD1FFF7B1
:100A4C00F7FE09E07B6810331800FFF7E7FD7B68C1
:100A5C0024331800FFF7E2FDFFF704FF0123180011
:100A6C00BD4602B080BD80B588B000AFF860B960FB
:100A7C00FB1D1A700023FB61FB68002B29D04C2056
:100A8C00FFF74CFF0300BB61BB69002B21D0FB6857
:100A9C00BA68534301337B617B691800FFF73EFF53
:100AAC000200BB691A60BB691B68002B0DD0BB69C7
:100ABC00FA68DA63BB69BA681A64BB690121180069
:100ACC00FFF77EFFBB69FB6103E0BB691800FFF712
:100ADC0063FFFB69002B01D172B6FEE7FB691800BE
:100AEC00BD4608B080BD80B584B000AF0200FB1DD0
:100AFC001A704C20FFF712FF0300FB60FB68002B01
:100B0C002CD0FB6800225A60FB6800221A60FB683C
:100B1C0000229A60FB680022DA60FB6800229A636C
:100B2C00FB680122DA63FB6800221A64FB6801226D
:100B3C0052425A64FB68012252429A64FB68103399
:100B4C001800FFF76BFDFB6824331800FFF766FDF8
:100B5C00F86800230022002100F00AF8FB68002B43
:100B6C0001D172B6FEE7FB681800BD4604B080BD2B
:100B7C0080B588B000AFF860B9607A603B60002344
:100B8C00FB61FB68002B01D172B6FEE7BB68002B42
:100B9C0003D1FB681B6C002B01D1012300E0002367
:100BAC00002B01D172B6FEE7FFF74EFEFB689A6B85
:100BBC00FB68DB6B9A4217D23A68B968FB6818007D
:100BCC0000F082F9FB685B6A002B09D0FB682433C8
:100BDC00180000F0DFFD0300012B01D1FFF728FE08
:100BEC00FFF740FE012355E07B68002B03D1FFF794
:100BFC0039FE00234EE0FB69002B06D11423FB18B1
:100C0C00180000F01FFE0123FB61FFF72BFE00F024
:100C1C00A7FBFFF719FEFB685B6C013302D1FB6885
:100C2C0000225A64FB689B6C013302D1FB680022E2
:100C3C009A64FFF717FE3A1D1423FB1811001800D5
:100C4C0000F01AFE031E1ED1FB68180000F01AFA01
:100C5C00031E11D0FB6810337A681100180000F0E5
:100C6C0037FDFB68180000F0B0F900F085FB031E9F
:100C7C009AD1FFF7DDFD97E7FB68180000F0A5F9A6
:100C8C0000F07AFB90E7FB68180000F09EF900F08A
:100C9C0073FB00231800BD4608B080BD80B586B03C
:100CAC0000AFF860B9607A603B60FB68002B01D143
:100CBC0072B6FEE7BB68002B03D1FB681B6C002BE4
:100CCC0001D1012300E00023002B01D172B6FEE715
:100CDC0000233B6172B6FB689A6BFB68DB6B9A4234
:100CEC0023D23A68B968FB68180000F0EDF8FB688D
:100CFC009B6C013311D1FB685B6A002B12D0FB6833
:100D0C002433180000F046FD031E0BD07B68002B2B
:100D1C0008D07B6801221A6004E0FB689B6C5A1CAB
:100D2C00FB689A6401237B6101E000237B6162B65E
:100D3C007B691800BD4606B080BD80B588B000AF99
:100D4C00F860B9607A603B600023FB61FB68002BA4
:100D5C0001D172B6FEE7BB68002B03D1FB681B6C9C
:100D6C00002B01D1012300E00023002B01D172B62E
:100D7C00FEE7FFF769FDFB689B6B002B3CD0FB6823
:100D8C00DB68BB61BA68FB681100180000F0F7F86B
:100D9C003B68002B1CD1FB689B6B5A1EFB689A634B
:100DAC00FB681B68002B04D100F002FF0200FB68FB
:100DBC005A60FB681B69002B1AD0FB6810331800B3
:100DCC0000F0E8FC0300012B12D1FFF731FD0FE01E
:100DDC00FB68BA69DA60FB685B6A002B08D0FB68B9
:100DEC002433180000F0D6FC031E01D0FFF720FDC1
:100DFC00FFF738FD012363E07B68002B03D1FFF77D
:100E0C0031FD00235CE0FB69002B06D11023FB189D
:100E1C00180000F017FD0123FB61FFF723FD00F024
:100E2C009FFAFFF711FDFB685B6C013302D1FB6885
:100E3C0000225A64FB689B6C013302D1FB680022D0
:100E4C009A64FFF70FFD3A1D1023FB1811001800D0
:100E5C0000F012FD031E2CD1FB68180000F0FFF807
:100E6C00031E1FD0FB681B68002B08D1FFF7ECFC9E
:100E7C00FB685B68180000F0C5FEFFF7F3FCFB682D
:100E8C0024337A681100180000F022FCFB6818006B
:100E9C0000F09BF800F070FA031E00D069E7FFF732
:100EAC00C7FC66E7FB68180000F08FF800F064FAE6
:100EBC005FE7FB68180000F088F800F05DFA00238B
:100ECC001800BD4608B080BD80B584B000AFF86096
:100EDC00B9607A60FB681B6C002B0CD1FB681B683B
:100EEC00002B43D1FB685B68180000F0E3FEFB6845
:100EFC0000225A603AE07B68002B19D1FB68986895
:100F0C00FB681A6CBB68190006F0DDFCFB689A687C
:100F1C00FB681B6CD218FB689A60FB689A68FB68CC
:100F2C005B689A4222D3FB681A68FB689A601DE0E2
:100F3C00FB68D868FB681A6CBB68190006F0C3FC28
:100F4C00FB68DA68FB681B6C5B42D218FB68DA60E2
:100F5C00FB68DA68FB681B689A4207D2FB685A6820
:100F6C00FB681B6C5B42D218FB68DA60FB689B6BFE
:100F7C005A1CFB689A63C046BD4604B080BD80B560
:100F8C0082B000AF786039607B681B68002B18D08A
:100F9C007B68DA687B681B6CD2187B68DA607B68CC
:100FAC00DA687B685B689A4203D37B681A687B6853
:100FBC00DA607B68D9687B681A6C3B68180006F0AD
:100FCC0082FCC046BD4602B080BD80B582B000AF89
:100FDC007860FFF739FC11E07B685B6A002B12D05C
:100FEC007B682433180000F0D5FB031E01D000F001
:100FFC0091FC7B689B6C5A1E7B689A647B689B6C2B
:10100C00002BE9DC00E0C0467B68012252429A6466
:10101C00FFF728FCFFF718FC11E07B681B69002B1D
:10102C0012D07B681033180000F0B4FB031E01D003
:10103C0000F070FC7B685B6C5A1E7B685A647B68A2
:10104C005B6C002BE9DC00E0C0467B68012252425D
:10105C005A64FFF707FCC046BD4602B080BD80B5A0
:10106C0084B000AF7860FFF7EFFB7B689B6B5A4254
:10107C005341DBB2FB60FFF7F5FBFB681800BD4684
:10108C0004B080BD80B584B000AF7860FFF7DCFBA6
:10109C007B689A6B7B68DB6BD31A5A425341DBB289
:1010AC00FB60FFF7DFFBFB681800BD4604B080BD9A
:1010BC0080B582B000AF78603960FFF7C5FB7B6804
:1010CC005B6C013302D17B6800225A647B689B6C99
:1010DC00013302D17B6800229A64FFF7C3FB7B6863
:1010EC009B6B002B06D17B6824333A6811001800E7
:1010FC0000F026FB7B681800FFF767FFC046BD4673
:10110C0002B080BD90B58BB002AFF860B9603B60A7
:10111C00BB1D1A80FB68002B01D172B6FEE73B6B3E
:10112C00042B01D972B6FEE7BA6BBB1D1B881100EC
:10113C00180000F0F5FC0300BB61BB69002B00D16B
:10114C0082E0BB691A6BBB1D1B884B498C46634400
:10115C009B00D3187B617B69072293437B617B697E
:10116C000722134001D072B6FEE7FC6B3A6BB968EC
:10117C00B869BB1D1B880093230000F0E7FB3A689D
:10118C00F9687B691800FFF7F4FA0200BB691A6072
:10119C00BB691B681A000723134001D072B6FEE727
:1011AC007B6B002B02D07B6BBA691A60FFF74CFB90
:1011BC00324B1B685A1C314B1A60314B1B68002B8D
:1011CC0009D12F4BBA691A602C4B1B68012B0FD11C
:1011DC0000F0F2FB0CE02B4B1B68002B08D1284BCA
:1011EC001B68DA6A3B6B9A4202D8254BBA691A60C3
:1011FC00BB69DA6A244B1B689A4203D9BB69DA6A69
:10120C00214B1A60214B1B685A1C204B1A60BB697E
:10121C00DA6A1F4B1B689A4203D9BB69DA6A1C4B0A
:10122C001A60BB69DA6A13009B009B189B00194A71
:10123C009A18BB69043319001000FFF718FA012340
:10124C00FB61FFF70FFB02E001235B42FB61FB69D3
:10125C00012B0BD10B4B1B68002B07D0084B1B68C9
:10126C00DA6A3B6B9A4201D2FFF7E2FAFB6918008B
:10127C00BD4609B090BDC046FFFFFF3FAC1F00202C
:10128C00D41E0020BC1F0020B41F0020D01F002043
:10129C00B81F0020D81E002080B584B000AF786045
:1012AC000023FB607B68002B14D000F059F80E4B28
:1012BC001A687B68D318BB600C4B1B68043318008E
:1012CC00FFF731FABB68180000F0F4FB00F054F89B
:1012DC000300FB60FB68002B01D1FFF7A9FAC046A5
:1012EC00BD4604B080BDC046B01F0020D41E0020F7
:1012FC0080B586B004AF164916480023039300232B
:10130C000293002301930023009300234622FFF74E
:10131C00F9FE03007B607B68012B03D100F008FD14
:10132C0003007B607B68012B08D172B60A4B01224B
:10133C001A600A4B00221A60FFF75AFA7B68002BDE
:10134C0001D172B6FEE7C046BD4602B080BDC046B4
:10135C005497000835190008BC1F0020B01F00204E
:10136C0080B500AF034B1B685A1C024B1A60C04679
:10137C00BD4680BDC01F002090B583B000AF0023D8
:10138C007B60354B1B68002B01D172B6FEE7FFF773
:10139C005BFA314B1B685A1E2F4B1A602E4B1B6885
:1013AC00002B52D12D4B1B68002B4ED000233B60E1
:1013BC0027E02B4BDB68DC68230018331800FFF7A1
:1013CC00B2F9231D1800FFF7AEF9E26A254B1B6832
:1013DC009A4202D9E26A234B1A60E26A13009B001C
:1013EC009B189B00204A9B18221D11001800FFF728
:1013FC003EF9E26A1D4B1B68DB6A9A4201D301235A
:10140C003B60174B1B68002BD3D1194B1B68002B6F
:10141C000DD006E000F042F8154B1B685A1E144B19
:10142C001A60134B1B68002BF4D101233B603B6803
:10143C00012B03D00F4B1B68012B06D101237B60C2
:10144C000C4B00221A60FFF7F3F9FFF70BFA7B68DD
:10145C001800BD4603B090BDC01F0020AC1F00207B
:10146C006C1F0020B81F0020D81E0020D41E0020A6
:10147C00C41F0020C81F002080B582B000AFFFF74A
:10148C00E3F9054B1B687B60FFF7ECF97B681800F0
:10149C00BD4602B080BDC046B01F002080B584B0F0
:1014AC0000AF484B1B68002B00D079E0464B1B6803
:1014BC005A1C454B1A60444B1B68002B28D1434BDC
:1014CC001B681B68002B01D072B6FEE73F4B1B68F4
:1014DC00FB603F4B1A683D4B1A603D4BFA681A6033
:1014EC003C4B1B685A1C3B4B1A60384B1B681B68E7
:1014FC00002B04D1384B012252421A6008E0334BC6
:10150C001B68DB68DB68BB60BB685A68324B1A60CF
:10151C002D4B1A68304B1B689A4248D32B4B1B68D7
:10152C001B68002B04D12C4B012252421A603EE066
:10153C00264B1B68DB68DB68BB60BB685B687B6049
:10154C00214B1A687B689A4203D2234B7A681A6043
:10155C002DE0BB6804331800FFF7E5F8BB689B6A05
:10156C00002B04D0BB6818331800FFF7DCF8BB68FD
:10157C00DA6A1A4B1B689A4203D9BB68DA6A174BB2
:10158C001A60BB68DA6A13009B009B189B00144A14
:10159C009A18BB68043319001000FFF768F8BDE710
:1015AC00104B1B685A1C0F4B1A6004F045FD0D4B79
:1015BC001B68002B01D104F03FFDC046BD4604B0B2
:1015CC0080BDC046C01F0020B01F0020641F00203B
:1015DC00681F0020CC1F002004000020B81F002032
:1015EC00D81E0020C41F002080B582B000AF324B43
:1015FC001B68002B03D0314B01221A6057E0304B93
:10160C001B681A682E4B1B681B6B9A4208D82C4B14
:10161C001A682B4B1B6834331900100004F049FD79
:10162C00274B1B681B6B27491422180006F03CF94A
:10163C00031E14D0224B1A68214B1B68343319003B
:10164C00100004F036FD0AE01F4B1B68002B01D183
:10165C0072B6FEE71C4B1B685A1E1B4B1A601A4BCA
:10166C001A681A4913009B009B189B005B58002BAF
:10167C00EAD0154B1A6813009B009B189B00134A69
:10168C009B187B607B685B685A687B685A607B68D8
:10169C005A687B6808339A4204D17B685B685A6845
:1016AC007B685A607B685B68DA68054B1A60C046D9
:1016BC00BD4602B080BDC046C01F0020C81F002020
:1016CC00D41E0020989E0008B81F0020D81E0020B1
:1016DC0080B584B000AF786039607B68002B01D195
:1016EC0072B6FEE7134B1B6818331A007B681100A7
:1016FC001800FEF7E2FF0F4B1B6804331800FFF7CE
:10170C0012F83B68013308D10A4B1B681A1D0A4BAF
:10171C0011001800FEF7ABFF08E0084B1A683B6895
:10172C00D318FB60FB68180000F0C4F9C046BD4636
:10173C0004B080BDD41E0020981F0020B01F0020D4
:10174C0080B584B000AF786039607B68002B01D124
:10175C0072B6FEE70D4B1B6818331A007B6811003C
:10176C001800FEF784FF094B1B6804331800FEF7C2
:10177C00DAFF074B1A683B68D318FB60FB6818004C
:10178C0000F098F9C046BD4604B080BDD41E0020C0
:10179C00B01F002080B584B000AF78607B68DB6838
:1017AC00DB68BB60BB68002B01D172B6FEE7BB687F
:1017BC0018331800FEF7B7FF1D4B1B68002B1DD10B
:1017CC00BB6804331800FEF7AEFFBB68DA6A194B2E
:1017DC001B689A4203D9BB68DA6A164B1A60BB685D
:1017EC00DA6A13009B009B189B00134A9A18BB687B
:1017FC00043319001000FEF73AFF07E0BB681833FA
:10180C001A000E4B11001800FEF731FFBB68DA6AA4
:10181C000B4B1B68DB6A9A4202D30123FB6001E08D
:10182C000023FB60FB681800BD4604B080BDC046B9
:10183C00C01F0020B81F0020D81E00206C1F0020E5
:10184C00D41E002080B582B000AF78607B68002B7E
:10185C0001D172B6FEE7064B1A687B681A60054B1D
:10186C001A687B685A60C046BD4602B080BDC0464F
:10187C00CC1F0020B01F002080B584B000AF786072
:10188C0039607B68002B01D172B6FEE73B68002BF8
:10189C0001D172B6FEE7FEF7D7FF3B681B68013338
:1018AC0002D10023FB602AE07B681A68174B1B6887
:1018BC009A4208D07B685A68154B1B689A4202D82A
:1018CC000123FB601BE0124B1A687B685B68D21A21
:1018DC003B681B689A4210D20D4B1A687B685B6898
:1018EC00D21A3B681B689A1A3B681A607B6818000E
:1018FC00FFF7A8FF0023FB6001E00123FB60FEF76C
:10190C00B1FFFB681800BD4604B080BDCC1F0020A1
:10191C00B01F002080B500AF024B01221A60C046F8
:10192C00BD4680BDC81F002080B582B000AF786076
:10193C0000F086F8044B1B68012B01D9FEF778FFE9
:10194C0004F0BDFBF4E7C046D81E002080B584B07F
:10195C0000AFF860B9607A603B60FB683433B968FB
:10196C000A22180006F058FBFB683D22002199540E
:10197C007B68042B01D904237B60FB687A68DA62EC
:10198C00FB687A681A64FB6804331800FEF764FE7F
:10199C00FB6818331800FEF75FFEFB68FA681A61E3
:1019AC007B680522D21AFB689A61FB68FA685A6256
:1019BC00C046BD4604B080BD80B582B000AF0023E8
:1019CC007B600CE07A6813009B009B189B00144A08
:1019DC009B181800FEF722FE7B6801337B607B6846
:1019EC00042BEFD90F4B1800FEF718FE0E4B180006
:1019FC00FEF714FE0D4B1800FEF710FE0C4B1800F2
:101A0C00FEF70CFE0B4B1800FEF708FE0A4B054ABE
:101A1C001A600A4B044A1A60C046BD4602B080BD2B
:101A2C00D81E00203C1F0020501F00206C1F0020DF
:101A3C00801F0020981F0020641F0020681F0020BA
:101A4C0080B582B000AF184B1B68002B27D0FFF776
:101A5C0087FC164B1B685A425341DBB27B60FFF785
:101A6C008BFC7B68002B1AD1FEF7EEFE0F4BDB686C
:101A7C00DB683B603B6804331800FEF754FE0C4BEC
:101A8C001B685A1E0A4B1A60074B1B685A1E064BE2
:101A9C001A60FEF7E7FE3B68180000F077F8C046C6
:101AAC00BD4602B080BDC046941F0020801F0020A0
:101ABC00AC1F002080B582B000AF7860134B1B6860
:101ACC007A685A60124B1B687A689A4209D2114B99
:101ADC001A680E4B1B68043319001000FEF7EDFD5D
:101AEC0010E00D4B1A68094B1B68043319001000E9
:101AFC00FEF7E3FD094B1B687A689A4202D2074B4A
:101B0C007A681A60C046BD4602B080BDD41E002063
:101B1C00B01F0020681F0020641F0020040000205C
:101B2C0080B584B000AF02003960BB1D1A80442020
:101B3C00FEF7F4FE0300FB60FB68002B21D03B6832
:101B4C00002B07D1BB1D1B889B001800FEF7E6FE7F
:101B5C00020000E03A68FB681A63FB681B6B002B01
:101B6C0006D1FB681800FEF717FF0023FB6008E0A6
:101B7C00FB68186BBB1D1B889B001A00A52105F088
:101B8C00ABFEFB681800BD4604B080BD80B582B0CA
:101B9C0000AF78607B681B6B1800FEF7FDFE7B685E
:101BAC001800FEF7F9FEC046BD4602B080BD00002D
:101BBC0080B582B000AF044B1B687B607B6818005B
:101BCC00BD4602B080BDC046D41E002080B582B098
:101BDC0000AF0A4B1B68002B02D100237B6008E08E
:101BEC00074B1B68002B02D101237B6001E0022311
:101BFC007B607B681800BD4602B080BDBC1F002016
:101C0C00C01F002080B584B000AF78607B68FB609B
:101C1C007B68002B01D172B6FEE7FB68DA6A224BB7
:101C2C001B68DB6A9A423AD21F4B1B68DB6A05229F
:101C3C00D21AFB689A61FB685969FB68DA6A13006F
:101C4C009B009B189B00194A9B18994222D1FB6858
:101C5C0004331800FEF767FD134B1B68DA6AFB6848
:101C6C00DA62FB68DA6A124B1B689A4203D9FB688A
:101C7C00DA6A0F4B1A60FB68DA6A13009B009B1838
:101C8C009B000A4A9A18FB68043319001000FEF7EF
:101C9C00EEFC04E0044B1B68DA6AFB68DA62C046AF
:101CAC00BD4604B080BDC046D41E0020D81E002006
:101CBC00B81F002080B584B000AF78607B68FB60F3
:101CCC007B68002B2CD0FB68DA6AFB681B6C9A4291
:101CDC0026D0FB6804331800FEF725FDFB681A6C50
:101CEC00FB68DA62FB68DB6A0522D21AFB689A6130
:101CFC00FB68DA6A0C4B1B689A4203D9FB68DA6AF8
:101D0C00094B1A60FB68DA6A13009B009B189B0056
:101D1C00064A9A18FB68043319001000FEF7A7FC5A
:101D2C00C046BD4604B080BDB81F0020D81E0020A0
:101D3C0080B586B004AF00237B6000F089FA0F4BAE
:101D4C001B68002B0FD00E490E4800230393002371
:101D5C000293002301930323009300234622FFF7F1
:101D6C00D1F903007B607B68002B01D172B6FEE7D2
:101D7C007B681800BD4602B080BDC0460420002020
:101D8C005C970008011F000880B586B000AFF860B2
:101D9C00B9607A603B60BB68002B06D100237B6185
:101DAC00BB68002B1FD172B6FEE72820FEF7B6FDEC
:101DBC0003007B617B69002B15D000F049FA7B692D
:101DCC00FA681A607B69BA689A617B697A68DA6129
:101DDC007B693A681A627B693A6A5A627B69043396
:101DEC001800FEF739FC7B691800BD4606B080BDB3
:101DFC0080B588B000AFF860B9607A603B600023B2
:101E0C00FB611E4B1B68002B33D01023FB18BA68E8
:101E1C001A601023FB187A685A601023FB18FA68B2
:101E2C009A603B68002B1AD1FFF7D0FE0300012B00
:101E3C000AD1124B1868BA6A1023F9180023FEF75E
:101E4C0097FE0300FB6114E00C4B18681023F91883
:101E5C0000230022FEF78CFE0300FB6109E0074B18
:101E6C0018683A681023F9180023FEF717FF0300CF
:101E7C00FB61FB691800BD4608B080BD0420002042
:101E8C0080B586B002AF78603960194B1B68DB688F
:101E9C00DB68FB60FB6804331800FEF744FCFB684E
:101EAC00DB69012B1AD1FB689A697B68D1187B68B6
:101EBC003A68F86800F0AEF80300012B0ED17A688E
:101ECC00F8680023009300230021FFF791FF030023
:101EDC00BB60BB68002B01D172B6FEE7FB685B6A86
:101EEC00FA6810009847C046BD4604B080BDC04695
:101EFC00FC1F002080B584B000AF78600823FB186D
:101F0C00180000F043F80300FB60BA68FB6811008E
:101F1C00180000F003F800F0BFF8EFE780B584B0CC
:101F2C0000AF78603960FFF71BFA0823FB18180024
:101F3C0000F04CF80300FB60BB68002B1ED13B6823
:101F4C00002B0CD17A68FB689A4208D8FFF714FA78
:101F5C00FA687B6811001800FFF792FF10E00A4B3B
:101F6C0018687A68FB68D31A1900FFF7A1F8FFF715
:101F7C0003FA031E04D1FEF75BFC01E0FFF7FCF94A
:101F8C00C046BD4604B080BD0420002080B584B09E
:101F9C0000AF78600C4B1B681B685A425341DBB294
:101FAC001A007B681A607B681B68002B05D1064BF6
:101FBC001B68DB681B68FB6001E00023FB60FB68AF
:101FCC001800BD4604B080BDFC1F002080B584B055
:101FDC0000AF7860FFF750FA0300FB600C4B1B68F6
:101FEC00FA689A4208D20A4B1B68180000F0D4F821
:101FFC007B6801221A6002E07B6800221A60044BA5
:10200C00FA681A60FB681800BD4604B080BDC04673
:10201C000820002080B586B000AFF860B9607A6007
:10202C003B6000237B61FB68BA685A60FB68FA6806
:10203C001A61BA687B689A4212D87A683B68D21ADD
:10204C00FB689B699A4202D301237B611BE0104B16
:10205C001A68FB68043319001000FEF72EFB12E01F
:10206C007A683B689A4206D2BA683B689A4202D3B5
:10207C0001237B6107E0074B1A68FB6804331900E6
:10208C001000FEF71AFB7B691800BD4606B080BD38
:10209C0000200020FC1F002080B58AB002AF3B1D41
:1020AC001800FFF793FF0300FB6165E00823FB18A2
:1020BC009B68BB61BB69002B08D0BB695B69002BBB
:1020CC0004D0BB6904331800FEF72DFB0823FB1862
:1020DC001B68012B50D002DC002B05D04BE0022BEF
:1020EC002FD0032B42D046E00823FB185A68BB695B
:1020FC009B69D1180823FB185B68FA69B869FFF76C
:10210C0089FF0300012B37D1BB695B6ABA691000E8
:10211C009847BB69DB69012B2ED10823FB185A6841
:10212C00BB699B69D218B869002300930023002176
:10213C00FFF75EFE03007B617B69002B1CD172B63E
:10214C00FEE70823FB185A68BB699A61BB699B6957
:10215C00002B01D172B6FEE7BB699A69FB69D118F5
:10216C00FB69FA69B869FFF755FF05E0BB69180010
:10217C00FEF712FC00E0C046064B18680823F9185D
:10218C0000230022FEF7D9FD031E8FD1C046BD46A9
:10219C0008B080BD0420002080B58AB002AF786002
:1021AC003EE0294B1B68DB681B68FB61264B1B68F8
:1021BC00DB68DB68BB61BB6904331800FEF7B3FA5C
:1021CC00BB695B6ABA6910009847BB69DB69012B74
:1021DC0026D1BB699A69FB69D3187B617A69FB6963
:1021EC009A420ED9BB697A695A60BB69BA691A619D
:1021FC00154B1A68BB69043319001000FEF75DFA21
:10220C000EE0FA69B8690023009300230021FFF760
:10221C00EFFD03003B613B69002B01D172B6FEE779
:10222C00094B1B681B68002BBBD1074B1B68FB6061
:10223C00064B1A68044B1A60044BFA681A60C046C5
:10224C00BD4608B080BDC046FC1F00200020002009
:10225C0080B500AFFEF7F8FA0F4B1B68002B15D1B9
:10226C000E4B1800FEF7DAF90D4B1800FEF7D6F9F5
:10227C000C4B0A4A1A600C4B094A1A6000220C21BA
:10228C000520FEF7F0FB0200034B1A60FEF7EAFA9A
:10229C00C046BD4680BDC04604200020D41F00208F
:1022AC00E81F0020FC1F00200020002080B586B015
:1022BC0000AF7860396000237B6100233B61002311
:1022CC00FB6000237B617CE001227B699A40130058
:1022DC003B613B681B683A691340FB60FA683B69D9
:1022EC009A426BD13B681B79012B03D03B681B795D
:1022FC00022B34D17B689B687A6952000321914090
:10230C000A00D2431A407B689A607B689A683B68E3
:10231C005B7919007B695B0099400B001A437B6861
:10232C009A607B689B889BB27A6992B211000122F9
:10233C008A4092B2D24392B213409AB27B689A808E
:10234C007B689B889AB23B689B7919007B699BB22E
:10235C0099400B009BB213439AB27B689A807B68BE
:10236C001B687A695200032191400A00D2431A403B
:10237C007B681A607B681A683B681B7919007B695B
:10238C005B0099400B001A437B681A607B68DB6822
:10239C007A6992B25200032191400A00D2431A404A
:1023AC007B68DA607B68DA683B68DB7919007B69EB
:1023BC005B0099400B001A437B68DA607B69013340
:1023CC007B617B690F2B00D87EE7C046BD4606B00B
:1023DC0080BD80B582B000AF786008001100BB1CD6
:1023EC00021C1A807B1C0A1C1A707B1C1B78002B8D
:1023FC0004D0BB1C1A887B689A6103E07B68BA1C0A
:10240C0012881A85C046BD4602B080BD80B582B028
:10241C0000AF78600A00BB1C1A807B68BA1C12885B
:10242C009A82C046BD4602B080BD80B584B000AF74
:10243C00786008001100BB1C021C1A807B1C0A1C53
:10244C001A700023FB600023BB607B1C1A78BB1C3A
:10245C001B8807210B409B009A401300FB60BB1CA0
:10246C001B88DB089BB21800BB1C1B88DB089BB2CB
:10247C001A007B6808329200D358BA1C12880721C4
:10248C000A4092000F2191400A00D2431A401100D9
:10249C007B68020008329200D150BB1C1B88DB0801
:1024AC009BB21A007B6808329200D258FB68134327
:1024BC00BB60BB1C1B88DB089BB21A007B68083214
:1024CC009200B968D150C046BD4604B080BD000032
:1024DC0080B584B000AF78600023FB607B689B788C
:1024EC00002B39D0244A7B681B789B08DBB2C033A5
:1024FC009B009B58FB607B681B781A0003231340DE
:10250C00DB00FF229A401300DA43FB681340FB60A8
:10251C007B685B789B01FF221A407B681B78190053
:10252C0003230B40DB009A401300FA681343FB6053
:10253C0011497B681B789B08DBB2C0339B00FA689F
:10254C005A500D4B7A68127811001F220A40012153
:10255C0091400A001A600AE007497B681B781A0050
:10256C001F23134001229A40130080228B50C04637
:10257C00BD4604B080BDC04600E100E080B588B027
:10258C0000AF78600023BB6100237B6100233B61BB
:10259C000023FB600023BB600023FB61A84B5B683E
:1025AC000C221340BB61BB69042B0CD002D8002B4E
:1025BC0005D03BE0082B0AD00C2B33D036E07B68DF
:1025CC00A04A1A6036E07B689F4A1A6032E09C4B46
:1025DC005A68F0239B0313407B61994B5A68C023C4
:1025EC005B0213403B617B699B0C02337B613B6953
:1025FC00002B04D17B69954A5343FB610EE0904B51
:10260C00DB6A0F2213400133FB60F9688E48FDF73B
:10261C0085FD03001A007B695343FB617B68FA69F3
:10262C001A6007E07B688A4A1A6003E07B68854A77
:10263C001A60C046824B5B68F0221340BB61BB69D9
:10264C001B09BB61834ABB69D3181B78DBB2BB6027
:10265C007B681A68BB68DA407B685A60784B5A68AA
:10266C00E023DB001340BB61BB691B0ABB61794AE9
:10267C00BB69D3181B78DBB2BB607B685A68BB683C
:10268C00DA407B689A606E4B1A6B80235B001A40B1
:10269C0080235B009A4203D07B686F4ADA6013E0B8
:1026AC00674B5A688023DB011A408023DB019A4276
:1026BC0005D07B689B685A087B68DA6004E07B680D
:1026CC009B689A087B68DA605D4B1B6B4022134059
:1026DC00402B03D07B68614A1A6103E07B6880223F
:1026EC0012021A61564B1B6B10221340102B03D095
:1026FC007B68544A5A6103E07B681A687B685A61AC
:10270C004F4B1B6B0322134004D17B689A687B6888
:10271C009A611EE04A4B1B6B03221340012B04D120
:10272C007B681A687B689A6113E0454B1B6B03222C
:10273C001340022B04D17B68802212029A6108E0BC
:10274C003F4B1B6B03221340032B02D17B683D4A8A
:10275C009A613B4B1A6BC0239B02134004D17B68DC
:10276C009A687B68DA6127E0354B1A6BC0239B02B1
:10277C001A4080235B029A4204D17B681A687B68FA
:10278C00DA6119E02E4B1A6BC0239B021A4080238E
:10279C009B029A4204D17B6880221202DA610BE020
:1027AC00274B1A6BC0239B021A40C0239B029A42F0
:1027BC0002D17B68234ADA61214B1A6BC0231B03BD
:1027CC00134004D17B689A687B681A6227E01C4B23
:1027DC001A6BC0231B031A408023DB029A4204D1DC
:1027EC007B681A687B681A6219E0154B1A6BC02358
:1027FC001B031A4080231B039A4204D17B6880225E
:10280C0012021A620BE00E4B1A6BC0231B031A4008
:10281C00C0231B039A4202D17B680A4A1A62084BF6
:10282C001B6B80221340802B03D07B68084A5A62B2
:10283C0002E07B68FA695A62C046BD4608B080BDAA
:10284C000010024000127A00001BB70000093D0086
:10285C00006CDC0208000020809FD5001280000074
:10286C0080B582B000AF78600A00FB1C1A70FB1CAC
:10287C001B78002B06D0094B084A51697A680A4329
:10288C005A6106E0054B054A52697968C9430A400A
:10289C005A61C046BD4602B080BDC0460010024021
:1028AC0080B582B000AF78600A00FB1C1A70FB1C6C
:1028BC001B78002B06D0094B084A91697A680A43A9
:1028CC009A6106E0054B054A92697968C9430A404A
:1028DC009A61C046BD4602B080BDC04600100240A1
:1028EC0080B582B000AF78600A00FB1C1A70FB1C2C
:1028FC001B78002B06D0094B084AD1697A680A4329
:10290C00DA6106E0054B054AD2697968C9430A4089
:10291C00DA61C046BD4602B080BDC0460010024020
:10292C0080B584B000AF78600A00FB1C1A700023DD
:10293C00FB607B68FB60FB680C33FB60FB68FA1C7C
:10294C0012781A70C046BD4604B080BD80B584B004
:10295C0000AF78600023FB607B68FB60FB680C3386
:10296C00FB60FB681B78DBB21800BD4604B080BD71
:10297C0080B590B000AF786039600023FB63002312
:10298C00BB6300237B637B681B68012293431A00A3
:10299C007B681A607B685B687B637B6B504A134077
:1029AC007B633B689B687A6B13437B637B687A6BB6
:1029BC005A607B681B687B637B6B4A4A13407B6362
:1029CC003B685A683B68DB681A433B681B691343D6
:1029DC007A6B13437B637B687A6B1A607B689B68AA
:1029EC007B637B6B404A13407B633B685B697A6B10
:1029FC0013437B637B687A6B9A600C23FB1818007B
:102A0C00FFF7BCFD7B68394A934204D10C23FB18B9
:102A1C009B69BB6315E07B68354A934204D10C2358
:102A2C00FB18DB69BB630CE07B68324A934204D130
:102A3C000C23FB181B6ABB6303E00C23FB189B687D
:102A4C00BB637B681A6880231B02134014D0BB6BDA
:102A5C005A003B681B6819001000FDF75FFB030070
:102A6C00FB63BB6B5A003B681B6819001000FDF739
:102A7C00DBFB0B007B6310E03B681B681900B86B39
:102A8C00FDF74CFB0300FB633B681A68BB6B110042
:102A9C001800FDF7C9FB0B007B633B681B685A08E9
:102AAC007B6B9A4202D8FB6B0133FB637B681A6821
:102ABC0080231B0213400AD0FB6B5B0807221340D8
:102ACC007B63FB6B0C4A1A407B6B1343FB63FB6B06
:102ADC009AB27B689A81C046BD4610B080BDC04694
:102AEC00FFCFFFFFF3E9FFFFFFFCFFFF00380140C2
:102AFC000044004000480040F0FF000080B582B068
:102B0C0000AF78600A00FB1C1A70FB1C1B78002BB2
:102B1C0006D07B681B6801221A437B681A6006E0AA
:102B2C007B681B68012293431A007B681A60C046BD
:102B3C00BD4602B080BD80B582B000AF78600A009F
:102B4C00BB1C1A80BB1C1B88DB05DB0D9AB27B6897
:102B5C001A85C046BD4602B080BD80B588B000AFB6
:102B6C00F860B960FB1D1A700023BB6100237B6108
:102B7C0000233B610023FB61FB68FB61BB689BB2DC
:102B8C001B0A9BB2BB61BB68FF2213407B61012215
:102B9C007B699A4013003B61BB69022B03D1FB6933
:102BAC000433FB6105E0BB69032B02D1FB690833DD
:102BBC00FB61FB1D1B78002B06D0FB69FA691168C1
:102BCC003A690A431A6006E0FB69FA6912683969C6
:102BDC00C9430A401A60C046BD4608B080BD80B5E6
:102BEC0084B000AF786039600F23FB1800221A7094
:102BFC007B68DB693A68134004D00F23FB18012271
:102C0C001A7003E00F23FB1800221A700F23FB1815
:102C1C001B781800BD4604B080BD80B582B000AFF3
:102C2C00786039607B683A681A62C046BD4602B06B
:102C3C0080BD80B586B000AF786039600023FB6042
:102C4C0000237B610023BB601323FB1800221A7046
:102C5C003B689BB21B0A9BB2BB603B68FF221340D4
:102C6C007B6101227B699A4013007B61BB68012B5D
:102C7C0005D17B681A687B6913407B610DE0BB68EA
:102C8C00022B05D17B685A687B6913407B6104E099
:102C9C007B689A687B6913407B613B681B0CFB600B
:102CAC000122FB689A401300FB607B68DA69FB68C1
:102CBC001340FB607B69002B07D0FB68002B04D012
:102CCC001323FB1801221A7003E01323FB180022B4
:102CDC001A701323FB181B781800BD4606B080BD74
:102CEC0080B500AF04F0E8F8C046BD4680BD80B5A5
:102CFC0082B000AF78607B68180004F017FAC04609
:102D0C00BD4602B080BD80B582B000AF78607B68F4
:102D1C00180004F031FAC046BD4602B080BD000078
:102D2C0080B500AF9023DB05002205211800FFF7CA
:102D3C007CFB9023DB05002206211800FFF775FBB6
:102D4C009023DB05002207211800FFF76EFB094BCF
:102D5C00C12292001A80074BB82252019A80054A70
:102D6C00044B1B889BB240210B439BB21380C04683
:102D7C00BD4680BD0030014080B500AFC046074B5A
:102D8C001B899BB21A00C0235B011A40C0235B0154
:102D9C009A42F4D0C046BD4680BDC04600300140CA
:102DAC0080B500AFC046054B1B899BB21A000123AE
:102DBC001340F8D0C046BD4680BDC046003001402F
:102DCC0090B585B000AF0200FB1D1A70FFF7D4FF61
:102DDC00FB1D1B780C4A19001000FFF7A1FD032006
:102DEC0003F07EF9FFF7DCFF0F23FC18064B1800ED
:102DFC00FFF7ACFD030023700F23FB181B781800A2
:102E0C00BD4605B090BDC0460030014090B585B0C0
:102E1C0000AF040008001100FB1D221C1A70BB1D22
:102E2C00021C1A707B1D0A1C1A70C0461D4B1B8994
:102E3C009BB21A00C0235B011340F7D1FB1D1B781A
:102E4C00184A19001000FFF76BFDBB1D1B78154AC3
:102E5C0019001000FFF764FD7B1D1B78114A190047
:102E6C001000FFF75DFDC0460E4B1B899BB21A008C
:102E7C0002231340F8D007E00F23FC18094B18006D
:102E8C00FFF764FD03002370064B1B899BB21A00ED
:102E9C0001231340F0D10F23FB181B781800BD46FB
:102EAC0005B090BD00300140B0B584B000AF050056
:102EBC000C0010001900FB1D2A1C1A70BB1D221CD3
:102ECC001A707B1D021C1A703B1D0A1C1A700F23F2
:102EDC00FB1800221A70C046234B1B899BB21A00A8
:102EEC00C0235B011340F7D1FB1D1B781E4A190050
:102EFC001000FFF715FDBB1D1B781B4A19001000B5
:102F0C00FFF70EFD7B1D1B78174A19001000FFF709
:102F1C0007FD3B1D1B78144A19001000FFF700FD3C
:102F2C00C046114B1B899BB21A0002231340F8D0E8
:102F3C000CE00D4B1800FFF709FD030019000F23DF
:102F4C00FB180F22BA1812788A181A70064B1B89B4
:102F5C009BB21A0001231340EBD10F23FB181B78F3
:102F6C001800BD4604B0B0BD0030014080B500AFC4
:102F7C00802319029023DB0500221800FFF729FAA1
:102F8C00C046BD4680BD80B500AF8023190290239A
:102F9C00DB0501221800FFF71CFAC046BD4680BDB8
:102FAC0090B583B000AFFFF7E1FFFC1D0022C021FC
:102FBC000520FFF72BFF0300237005E0FC1D00200C
:102FCC00FFF7FEFE03002370FB1D1B78012213404C
:102FDC00F4D1FFF7D8FFFB1D1B783C221340DBB26A
:102FEC001800BD4603B090BD80B582B000AF1E2066
:102FFC0003F076F81E4B1B687B607A6880239B007D
:10300C00134007D07B68202213400AD17B688022B2
:10301C00134006D17A6880231B01134000D1E6E7E8
:10302C00C046144B00221A60134B00221A60134A3C
:10303C00124B9B889BB201218B439BB293800F4A0E
:10304C000E4B9B889BB202218B439BB293807A6878
:10305C0080239B00134005D07B688022134001D154
:10306C00012300E000231800BD4602B080BDC0461D
:10307C00000002401C0002403000024000300140C1
:10308C0080B582B000AF78603960234B00221A60A3
:10309C00224B00221A60224BA0225A60204BA02205
:1030AC0012015A601C4B1F4A9A601C4B1D4A9A60B5
:1030BC00194B7A68DA60194B7A68DA60164B3A6801
:1030CC005A60164B3A685A60134B842252011A60AC
:1030DC00124B154A1A60104B0F4A126801210A4311
:1030EC001A600E4B0D4A126801210A431A600F4AEE
:1030FC000E4B9B889BB201210B439BB293800B4AD6
:10310C000A4B9B889BB202210B439BB29380C04617
:10311C00BD4602B080BDC0461C00024030000240DB
:10312C00000002400C3001409010000000300140C3
:10313C0080B582B000AF78603960234B00221A60F2
:10314C00224B00221A60224BA0225A60204BA02254
:10315C0012015A601C4B1F4A9A601C4B1D4A9A6004
:10316C00194B1D4ADA60194B7A68DA60164B3A68CB
:10317C005A60164B3A685A60134B802252011A60FF
:10318C00124B164A1A60104B0F4A126801210A435F
:10319C001A600E4B0D4A126801210A431A60104A3C
:1031AC000F4B9B889BB201210B439BB293800C4A23
:1031BC000B4B9B889BB202210B439BB29380C04666
:1031CC00BD4602B080BDC0461C000240300002402B
:1031DC00000002400C300140342000209010000010
:1031EC000030014080B584B000AF78600A00FB1C51
:1031FC001A707B68DBB21B01DAB20F23FB18703A32
:10320C001A70FFF7CDFEFFF7B1FEFB1C1A780F23E7
:10321C00FB181B7819000120FFF7F8FDFFF7B3FE30
:10322C00C046BD4604B080BD90B587B000AF786095
:10323C0039607B681A121723FB181A701623FB18B7
:10324C007A681A703B683B61FFF7AAFEFFF78EFEA7
:10325C001623FB1819781723FB181A780B0000217A
:10326C001320FFF721FEFFF78EFE0F23FC18FFF74C
:10327C0097FE030023700F23FB181B7820221340AA
:10328C0001D0002311E0FFF771FE0023F822072183
:10329C000320FFF709FE3B6948211800FFF7F0FEF9
:1032AC00FFF7A2FEFFF76FFE01231800BD4607B023
:1032BC0090BD90B585B000AF78607B681A120F2373
:1032CC00FB181A707B68DAB20E23FB183F218A4375
:1032DC001A70FFF765FEFFF749FE0620FFF770FD39
:1032EC00FFF751FEFFF75CFEFFF740FE0E23FB18C5
:1032FC0019780F23FB181A780B000021D820FFF740
:10330C00D3FDFFF740FE0D23FC18FFF749FE030029
:10331C0023700D23FB181B780C22134001D00023C3
:10332C0000E001231800BD4605B090BD90B587B0F4
:10333C0000AF786039607B681A121723FB181A707B
:10334C001623FB187A681A703B683B61FFF728FE5E
:10335C00FFF70CFE1623FB1819781723FB181A78A5
:10336C000B0000211320FFF79FFDFFF70CFE0F232E
:10337C00FC18FFF715FE030023700F23FB181B78B6
:10338C002022134001D0002313E0FFF7EFFD0023B0
:10339C00002200210320FFF787FD80231A013B69DF
:1033AC0011001800FFF76CFEFFF71EFEFFF7EBFD98
:1033BC0001231800BD4607B090BD000090B587B042
:1033CC0000AF78607B681A121723FB181A7016234B
:1033DC00FB187A681A702F4B3B61FFF7E1FDFFF782
:1033EC00C5FD0620FFF7ECFCFFF7CDFDFFF7D8FD80
:1033FC00FFF7BCFD002200210220FFF707FD84230C
:10340C001A013B6911001800FFF792FEFFF7ECFD63
:10341C00FFF7B9FDFFF7C4FDFFF7A8FD1623FB1856
:10342C0019781723FB181A780B0000211020FFF7CE
:10343C003BFDFFF7A8FD0F23FC18FFF7B1FD0300C0
:10344C0023700F23FB181B780C22134001D0002390
:10345C001CE00F23FC18104A7B6811001800FFF7C2
:10346C0065FF030023700F23FB181B78002B01D181
:10347C0000230BE080231A010749064B180004F0C7
:10348C0013FA031E01D0002300E001231800BD46EF
:10349C0007B090BD704800203820002080B584B063
:1034AC0000AF78600E23FB18012252421A807B6811
:1034BC00174A934201D1002326E0164A7B6811007B
:1034CC001800FFF7B1FE031E1DD0124B1B890E22F4
:1034DC00BA1812889A4216D10E4B1B8B0E22BA18B0
:1034EC0012889A420FD10B4B1B8D0E22BA181288E0
:1034FC009A4208D1074B1B8F0E22BA1812889A4297
:10350C0001D1012300E000231800BD4604B080BDAA
:10351C0080FF00007828002080B582B000AF5821D1
:10352C000220FFF75FFEFFF73BFDFFF71FFD0023B7
:10353C00002200211320FFF7B7FCFFF724FDFFF753
:10354C002FFDFFF713FD0023002200210320FFF7BE
:10355C00ABFC154B20211800FFF792FDFFF744FD43
:10356C00FFF711FD18210220FFF73CFE0F4B012243
:10357C009A6000237B6008E00C4B0B4A7968890049
:10358C008A581A607B6801337B607B68072BF3DDFC
:10359C00064B1A68044B1A60044B01229A60C04611
:1035AC00BD4602B080BDC046142000200030024051
:1035BC0080B582B000AFFB1D00221A70314B1B6826
:1035CC005A1C304B1A602F4B1A6880235B029A42AC
:1035DC0002D12C4B00221A6000233B6048E0294B9F
:1035EC001B681800FFF75AFF031E20D0264B5B68A0
:1035FC00013342D0234B1B683F22134017D1FB1DD4
:10360C001B78002B13D100210120FFF7EBFD1D4B84
:10361C001B681800FFF74DFE7C210120FFF7E2FD2F
:10362C00FB1D01221A703B68013B3B601DE0FB1D3A
:10363C0000221A70134B1B685A1C124B1A60114B48
:10364C001B68124A934210D90E4B00221A600021BB
:10365C000120FFF7C7FD0020FFF72BFE7C21012086
:10366C00FFF7C0FDFB1D01221A703B6801333B6064
:10367C003B68064A9342B2DD00E0C046C046BD46F8
:10368C0002B080BD0C20002078280020FFFF000035
:10369C0080B586B000AF00233B610023FB60504A2D
:1036AC0085231B010121D1544E4B00221A604E4B35
:1036BC0001221A6000237B6117E07B691800FFF779
:1036CC00EDFE031E0BD0494B5B68013309D0474B11
:1036DC005A68454B1A60434B7A691A6009E0C04638
:1036EC0000E0C0467B6901337B617B69404A9342B1
:1036FC00E3D97A6980235B029A4200D16CE07B6942
:10370C00013B7B6152E07B691800FFF7C7FE031E8B
:10371C004CD0364B5B68BB60BB68013300D145E0D5
:10372C00324BDB78FF2B33D12D4A85231B01D35C25
:10373C00002B12D0BB683B61BB68FB60284B2D494A
:10374C007A695A50264A84231B017969D150244A3C
:10375C0085231B010021D1541AE0BA683B69D31AA6
:10376C007B607B68002B06DABB683B611C4A8423B8
:10377C001B017969D150BA68FB68D31A7B607B68EE
:10378C00002B05DDBB68FB60154B1A497A695A5052
:10379C00154B1B68BA68D31A7B607B68002B05DD60
:1037AC00114BBA681A600F4B7A691A607B69013346
:1037BC007B617B690E4A9342A5D9FFF7F9FE0A4B50
:1037CC001B685A1C084B1A60074B1B68013304D149
:1037DC00054B01221A6000E0C046BD4606B080BD14
:1037EC00144000200C2000201020002078280020FD
:1037FC00FFFF00004808000090B587B000AF78606C
:10380C007B681A121723FB181A701623FB187A6898
:10381C001A70FFF7C5FBFFF7A9FB1623FB181978E5
:10382C001723FB181A780B0000211320FFF73CFB21
:10383C00FFF7A9FBFFF7B4FBFFF798FB0620FFF798
:10384C00BFFAFFF7A0FB214B3B613B691B12DAB2BD
:10385C000F23FB180F210A401A700E23FB183A692C
:10386C001A70FFF79DFBFFF781FB0E23FB181A78EC
:10387C000F23FB18197800238420FFF715FBFFF7A3
:10388C0082FBFFF78DFBFFF771FB1623FB181978F2
:10389C001723FB181A780B0000211020FFF704FBEC
:1038AC00FFF771FB0E23FC18FFF77AFB0300237064
:1038BC000E23FB181B780C22134001D0002300E0D0
:1038CC0001231800BD4607B090BDC046FB070000A1
:1038DC0080B584B000AF78607B681A120F23FB1898
:1038EC001A700E23FB187A681A701D4BBB60BB68EC
:1038FC0040220021180003F0EFFFFFF751FBFFF708
:10390C0035FB0620FFF75CFAFFF73DFBFFF748FBA2
:10391C00FFF72CFB002208210220FFF777FABB6887
:10392C0040211800FFF704FCFFF75EFBFFF72BFBB1
:10393C00FFF736FBFFF71AFB0E23FB1819780F2342
:10394C00FB181A780B0000211020FFF7ADFAFFF7D7
:10395C001AFBFFF725FBC046BD4604B080BDC04630
:10396C007828002080B582B000AF2D4B1A682D4B03
:10397C002D495A502A4B1B685A1C294B1A60284B4C
:10398C001B68013302D1264B01221A60274A85237A
:10399C001B01D35C002B0AD0254B1968234A8423C6
:1039AC001B01D150214A85231B010021D154002138
:1039BC000120FFF717FC00237B6010E01C4B1B68F9
:1039CC001800FFF7FBFC031E0DD1194B1B681800E8
:1039DC00FFF77EFFFFF7ECFD7B6801337B607B68B4
:1039EC00182BEBDD00E0C0467C210120FFF7FAFB31
:1039FC000F4B1A680D4B0F495A507B68182B01DC82
:103A0C00FFF7D6FD84231A01064BFF21180003F0A3
:103A1C0063FF094B00221A60C046BD4602B080BD50
:103A2C001020002070480020FC07000014400020EB
:103A3C000C200020480800006848002090B583B096
:103A4C0000AF80235B00180000F05CF92A4B18686B
:103A5C0001235A4200230021FDF76FF9274B284A16
:103A6C0000219950254A84231B01D258234B254908
:103A7C005A50FB1D2149852212018A5C1A7020E0E4
:103A8C001E4B204A9B581A00FC1D1C4B19001000A1
:103A9C00FFF74CFC03002370FB1D1B78002B10D18F
:103AAC00164B184A9A58154B17495B589A420DD029
:103ABC00124B144A9B5801331B041A0C0F4B11491F
:103ACC005A50FB1D1B78002BDAD000E0C046FB1DC2
:103ADC001B78002B04D1094A85231B010121D154E9
:103AEC00054B1868002300220021FDF741F8C04661
:103AFC00BD4603B090BDC0466C4800201440002069
:103B0C004C080000440800004808000090B585B03F
:103B1C0000AF7860504A85231B01D35C002B02D088
:103B2C0001235B4293E04D4B186801235A4200235A
:103B3C000021FDF702F9484B494A9B58A92B20D884
:103B4C00454B474A9A587868434913005B009B18C9
:103B5C009B000200CB1813CB13C27B681B6801338C
:103B6C000FD03D4B3E4A9B585A1C3B4B3C495A503C
:103B7C003A4B1868002300220021FCF7F9FF0023C0
:103B8C0065E0354B374A9A58334B37495B589A4264
:103B9C000ED1314A85231B010121D1542F4B1868BA
:103BAC00002300220021FCF7E3FF01235B424EE0DF
:103BBC00294B2C4A9B5801331B041A0C264B2949C0
:103BCC005A50254B264A002199500F23FB180022EE
:103BDC001A7036E0204B234A9B581A000F23FC180E
:103BEC001D4B19001000FFF7A1FB030023700F23DE
:103BFC00FB181B78002B04D0174B1C4A9B5CFF2B2B
:103C0C001FD0154B174A9A58134B17495B589A42B9
:103C1C000ED1114A85231B010121D1540F4B186879
:103C2C00002300220021FCF7A3FF01235B420EE0DE
:103C3C00094B0C4A9B5801331B041A0C064B0949BF
:103C4C005A500F23FB181B78002BC3D073E71800B6
:103C5C00BD4605B090BDC046144000206C48002005
:103C6C004C0800004408000048080000FB07000056
:103C7C0080B500AF1F4B186801235A420023002166
:103C8C00FDF75BF800210120FFF7ACFA0FE01A4AB0
:103C9C0084231B01D3581800FFF7AEFD164A84236A
:103CAC001B01D358591C144A84231B01D150124AAE
:103CBC0084231B01D258104B10495B589A42E6D30F
:103CCC000D4A85231B01D35C012B05D10A4B0C4AF1
:103CDC009B581800FFF790FD7C210120FFF782FA1A
:103CEC00044B1868002300220021FCF741FFC0465A
:103CFC00BD4680BD6C4800201440002044080000E4
:103D0C004808000090B589B002AF7860334B186852
:103D1C0001235A4200230021FDF70FF8304B1A689B
:103D2C00304B1A60304B1A680C23FB181A602F4B5F
:103D3C001B689AB20C23FB189A802D4B1B689AB205
:103D4C000C23FB18DA800C23FB189B881A00294BD8
:103D5C001A600C23FB18DB881A00274B1A607B684F
:103D6C009AB20C23FB181A81244B1A6824491300AD
:103D7C005B009B189B000C22BA18CB1813CA13C3F8
:103D8C001E4B1B685A1C1D4B1A601C4B1B68A92B25
:103D9C0004DC7A6880235B009A4201D1FFF7E2FDD4
:103DAC000E4B1868002300220021FCF7E1FE0C23C7
:103DBC00FB1819680C23FB189B881A000C23FB18A2
:103DCC00DB881C000C23FB181B890E480093230076
:103DDC0003F0FEF9C046BD4607B090BD6C4800200C
:103DEC0018510020B4500020D0500020EC5000207E
:103DFC00FC50002010510020F45000206848002096
:103E0C00704800206497000880B582B000AF2B4B3F
:103E1C003B6000237B600AE03B685A1C3A607A687E
:103E2C00D2B20132D2B21A707B6801337B607B68EC
:103E3C00234A9342F0DD234B234A19001000FFF76D
:103E4C0075FA031E08D080231A011E491B4B18005B
:103E5C0003F02AFD031E2CD000210120FFF7C2F92C
:103E6C00194B1800FFF725FA144A80231B01002177
:103E7C00D152124A81231B010021D1520F4A8223B5
:103E8C001B010021D1520D4A83231B010021D15269
:103E9C000D4B1800FFF792FA031E05D10B4B1B6854
:103EAC0004221A43094B1A607C210120FFF79AF96E
:103EBC0000E0C046BD4602B080BDC0467048002040
:103ECC00FF0700003820002080FF0000C4500020B5
:103EDC0080B500AFFEF724FFFFF762F8FFF746F856
:103EEC00FF20FEF76DFFFFF74EF8FFF715FBFFF70E
:103EFC008BFF84231A010B4BFF21180003F0ECFC01
:103F0C00094B00221A60094A85231B010121D15457
:103F1C000120FCF7E8FD0200054B1A60C046BD46C7
:103F2C0080BDC04670480020684800201440002026
:103F3C006C48002080B582B000AF78607B689BB283
:103F4C00044800221900FEF744FAC046BD4602B0F0
:103F5C0080BDC0460004004880B582B000AF7860D8
:103F6C007B689BB2044801221900FEF732FAC04666
:103F7C00BD4602B080BDC0460004004880B500AF0D
:103F8C0003F0F8F9C046BD4680BD80B500AF0120F6
:103F9C0001F078FE012001F05FFE032002F0A0F892
:103FAC00002001F06FFE032002F09AF8002001F0CF
:103FBC0053FE052002F094F8C046BD4680BD80B586
:103FCC0000AF002001F05EFE032002F089F8012012
:103FDC0001F042FE032002F083F8012001F052FEB2
:103FEC00052002F07DF8C046BD4680BD80B500AF0F
:103FFC00002001F047FE012001F02EFE032002F00C
:10400C006FF8002001F028FE012001F03BFEC046B5
:10401C00BD4680BD80B500AF012001F033FE03200A
:10402C0002F05EF8012001F017FE032002F058F8B0
:10403C00002001F011FEC046BD4680BD80B584B0A5
:10404C0000AF78600023FB6019E07B68802213408E
:10405C0003D0012001F016FE02E0002001F012FE58
:10406C007B685B007B60012001F0F6FD032002F011
:10407C0037F8002001F0F0FDFB680133FB60FB68B2
:10408C00072BE2DD012001F0FDFD032002F028F8F2
:10409C00012001F0E1FD052002F022F80B23FB18B2
:1040AC0001221A709023DB051B8A9BB21A00802315
:1040BC00DB00134003D00B23FB1800221A700020E6
:1040CC0001F0CAFD0B23FB181B781800BD4604B089
:1040DC0080BD80B582B000AF08237B6000233B60BD
:1040EC0017E03B685B003B609023DB051B8A9BB2AF
:1040FC001A008023DB00134002D03B6801333B6085
:10410C00012001F0A9FD032001F0EAFF002001F0DD
:10411C00A3FD7B68013B7B607B68002BE1DA3B688D
:10412C001800BD4602B080BD90B587B000AF786076
:10413C0029237B61374B1B78002B02D07B69013B19
:10414C007B61FFF722FF7B691322BC181800FFF775
:10415C0075FF030023701323FB181B78002B03D16E
:10416C00FFF72DFF002351E02A4B1B78002B20D0AA
:10417C00284B00221A701323FC180120FFF75EFF56
:10418C0003002370FFF701FF2920FFF757FF0300FF
:10419C0019001323FB181322BA1812780A401A704C
:1041AC001323FB181B78002B03D1FFF708FF002308
:1041BC002CE0FFF78EFF0300FB60FFF717FFFFF704
:1041CC0088FF0300BB60FFF725FFFFF7F8FEFB68D5
:1041DC00FF2213407B617B691B027B61BB68FF2262
:1041EC0013407A69D3187B617B687A691A600A4B31
:1041FC001A007B699A4201D8002307E0074B1A008A
:10420C007B699A4201D3002300E001231800BD46CC
:10421C0007B090BDB8500020C8C5000033060000A0
:10422C0080B586B000AF344B1B68002B0ADD334BD6
:10423C001A68314B1B6819001000FBF7F9FF0300DB
:10424C007B6102E02E4B1B687B612D4B7A691A60F7
:10425C002A4B00221A60284B00221A607B699BB201
:10426C00284A934201D3002342E001233B610AE038
:10427C00254B3A695200D35A1A007B699A4206DDE3
:10428C003B6901333B613B698B2BF1DD00E0C046A0
:10429C003B698B2B01DD8B232AE03B695A1E1A4BA1
:1042AC005200D35AFB60184B3A695200D35A1A0089
:1042BC00FB689B1ABB603B695A1E13009B009B1842
:1042CC005B007B60FA687B69D21A13009B009B1819
:1042DC005B001A00BB685B10D318B9681800FBF7B9
:1042EC00A7FF03003B617A683B69D3187B607B684E
:1042FC001800BD4606B080BDC4280020C028002090
:10430C00C8280020C8C50000AC9E000880B582B04B
:10431C0000AF0D4B00221A703B1D1800FFF704FF75
:10432C00031E0CD0094B1B681A007B68D3181A00AB
:10433C00064B1A60064B1B685A1C054B1A60C0468C
:10434C00BD4602B080BDC046E4500020C02800200D
:10435C00C428002080B582B000AFFFF730FE144BAC
:10436C0000221A60134B00221A60134B00221A60B1
:10437C003B1D1800FFF7D8FE104B180001F0B0FEE3
:10438C003B1D1800FFF7D0FE0C4B180001F0A8FEE7
:10439C003B1D1800FFF7C8FE031E05D1084B1B6818
:1043AC0001221A43064B1A60C046BD4602B080BDBE
:1043BC00C4280020C0280020C8280020A0860100A6
:1043CC00C450002080B500AF012001F087FC012013
:1043DC0001F06EFC032001F083FE002001F07EFC56
:1043EC00032001F07DFE002001F062FC052001F0AD
:1043FC0077FEC046BD4680BD80B500AF002001F001
:10440C006DFC032001F06CFE012001F051FC032037
:10441C0001F066FE012001F061FC052001F060FE58
:10442C00C046BD4680BD80B500AF002001F056FCF3
:10443C00012001F03DFC032001F052FE002001F0B0
:10444C0037FC012001F04AFCC046BD4680BD80B55A
:10445C0000AF012001F042FC032001F041FE0120DD
:10446C0001F026FC032001F03BFE002001F020FCB3
:10447C00C046BD4680BD80B584B000AF78600023D7
:10448C00FB6019E07B688022134003D0012001F00F
:10449C0025FC02E0002001F021FC7B685B007B60C6
:1044AC00012001F005FC032001F01AFE002001F0B0
:1044BC00FFFBFB680133FB60FB68072BE2DD01208F
:1044CC0001F00CFC032001F00BFE012001F0F0FBCD
:1044DC00052001F005FE0B23FB1801221A70902316
:1044EC00DB051B8A9BB21A0080235B01134003D0AF
:1044FC000B23FB1800221A70002001F0D9FB0B23B0
:10450C00FB181B781800BD4604B080BD80B582B086
:10451C0000AF08237B6000233B6017E03B685B0027
:10452C003B609023DB051B8A9BB21A0080235B0146
:10453C00134002D03B6801333B60012001F0B8FB13
:10454C00032001F0CDFD002001F0B2FB7B68013BA4
:10455C007B607B68002BE1DA3B681800BD4602B03B
:10456C0080BD000090B587B000AF786029237B61D7
:10457C00384B1B78002B02D07B69013B7B61FFF72A
:10458C0021FF1323FC187B691800FFF774FF03004D
:10459C0023701323FB181B78002B03D1FFF72CFF80
:1045AC00002353E02B4B1B78002B20D0294B0022EF
:1045BC001A701323FC180120FFF75DFF0300237012
:1045CC00FFF700FF2920FFF756FF03001900132304
:1045DC00FB181322BA1812780A401A701323FB180E
:1045EC001B78002B03D1FFF707FF00232EE0FFF70A
:1045FC008DFF0300FB60FFF716FFFFF787FF03003B
:10460C00BB60FFF724FFFFF7F7FEFB68FF221A40A1
:10461C007B681A607B681B681A027B681A607B686F
:10462C001A68BB68FF210B40D2187B681A607B6844
:10463C001B68002B04D07B681B68074A934204D18B
:10464C007B6800221A60002300E001231800BD469D
:10465C0007B090BDC8500020FFFF000080B582B0AD
:10466C0000AF78607B68034A53435B131800BD4668
:10467C0002B080BDFA20000080B584B000AF786035
:10468C007B68FB60FB685B0304491800FBF7D0FDFB
:10469C0003001800BD4604B080BDC046FA200000DF
:1046AC0080B582B000AF134B1B68002B0AD0124BA5
:1046BC001A68104B1B6819001000FBF72FFD030044
:1046CC007B6002E00D4B1B687B607A680B4B1A60B9
:1046DC00094B00221A60074B00221A607B681800F5
:1046EC00FFF7BCFF03007B607B681800BD4602B07F
:1046FC0080BDC046D0280020CC280020D428002023
:10470C0080B582B000AF3B1D1800FFF72BFF031ED6
:10471C0014D07A680D4B1B689A420FD27A680C4BF6
:10472C001B689A420AD90B4B1A687B68D218094B42
:10473C001A60094B1B685A1C074B1A60074B002266
:10474C001A70C046BD4602B080BDC046D8280020B5
:10475C00DC280020CC280020D0280020CA500020C3
:10476C0080B582B000AFFFF747FE354B00221A60D0
:10477C00344B00221A60344B00221A603B001800A4
:10478C00FFF7F0FE314B180001F0AAFC3B001800BB
:10479C00FFF7E8FE2D4B180001F0A2FC00233B6054
:1047AC003B001800FFF7DEFE3B681800FFF756FFD2
:1047BC0003003B603B68264A934205D8254B1B6897
:1047CC0002221A43234B1A603B68234A934205D9B1
:1047DC00204B1B6802221A431E4B1A603B681F4A6F
:1047EC00934203D81E4B01221A6012E03B681D4A0B
:1047FC00934203D81A4B02221A600AE03B681A4A09
:10480C00934203D8164B03221A6002E0144B042285
:10481C001A60134B1B68154A53431800FFF72CFF03
:10482C0003007B607B685A08114B1A60104B1A68A6
:10483C007B68D2180F4B1A60C046BD4602B080BDD3
:10484C00D0280020CC280020D4280020A0860100ED
:10485C00131E0000C4500020E8FD00007F3E000045
:10486C00D85000202F750000C7AF00003831000071
:10487C00DC280020D828002080B584B000AF7860F8
:10488C0039603B681800FBF741FC0300FB607B6858
:10489C00002B09D0FA6839687B68180003F0ABFB71
:1048AC00031E01D1012300E00023BB60BB68002B79
:1048BC0001D0FB6800E000231800BD4604B080BDA9
:1048CC0080B584B000AF786039603A687B681100BD
:1048DC00180003F0B6FB0300FB60FB68002B07D04D
:1048EC003B681800FBF712FC0200FB689B1800E009
:1048FC0000231800BD4604B080BD000080B584B014
:10490C0000AF78607B681B78412B25D17B68013325
:10491C001B78542B20D10023FB6017E07B68981C7C
:10492C00104BFA68D200D3581900FFF7A5FF031EED
:10493C0009DD0C4AFB68DB00D31804331B68FA2230
:10494C00920053430AE0FB680133FB60054BFA68A5
:10495C00D200D358002BE1D1034B1B681800BD4685
:10496C0004B080BD3C0000203800002080B584B02D
:10497C0000AF786039607B681800FBF7C7FB030059
:10498C00FB603B681800FBF7C1FB0300BB60FA68D7
:10499C00BB689A420EDBFA68BB68D31A1A007B68B4
:1049AC009B183A6811001800FBF7A6FB031E01D1F7
:1049BC00012300E000231800BD4604B080BD80B583
:1049CC0084B000AF78600023FB6009E0FB687A6874
:1049DC00D3181B78180002F0EBFDFB680133FB6069
:1049EC00FB687A68D3181B78002BEFD1C046BD4604
:1049FC0004B080BD80B588B000AFF860B9607A6053
:104A0C003B60BA68FB681100180003F01AFB030046
:104A1C00FB61BB681800FBF779FB0300BB617B688B
:104A2C00002B02D07B683A681A60BB6A002B02D05C
:104A3C00BB6AFA6A1A60FB69002B2BD0BB69FA6956
:104A4C00D3183B613B691022B9180022180003F0FF
:104A5C00A7FB03007B617B68002B02D07B687A6923
:104A6C001A603B691B782C2B14D13B6901333B61D9
:104A7C003B69002B0ED03B691022B918002218009C
:104A8C0003F08EFB03007B61BB6A002B02D0BB6A78
:104A9C007A691A60C046BD4608B080BD80B58CB03E
:104AAC0000AFF860B9607A603B600B23BB610A23EE
:104ABC007B617B68FB620023BB6200237B6200236B
:104ACC003B62FB6800221A7085E0FB6A180002F05A
:104ADC008FFD03003B613B69002B06DA3B6A002B20
:104AEC0000D07FE001235B4282E03B6A5A1C3A62B1
:104AFC001A00FB689B183A69D2B21A703B6AFA68C2
:104B0C00D31800221A703B68002B19D03A4AFB6864
:104B1C0011001800FFF72AFF031E00D064E0374A8B
:104B2C00FB6811001800FFF721FF031E5ED1344A09
:104B3C00FB6811001800FFF719FF031E40D056E068
:104B4C003A6ABB699A420BD12E4AFB6811001800D5
:104B5C00FBF7D2FA03005A425341DBB2BB622FE09F
:104B6C003A6ABB699A422BDDBB6A002B28D07B6A60
:104B7C00002B25D13B690A2B22D1FB682C21180074
:104B8C0003F023FA0300FB61FB69002B13D0FB69D4
:104B9C0001332C21180003F018FA0300FB61FB69A8
:104BAC00002B08D0FB6901330A220021180003F006
:104BBC00F7FA03007B62FB69002B01D10023BB6277
:104BCC007B6A002B05D07A6913009B009B18FB6253
:104BDC0001E07B69FB62BB685A1E3B6A9A4200DDAE
:104BEC0073E704E0C04602E0C04600E0C0463B6A02
:104BFC001800BD460CB080BDD4970008DC970008A7
:104C0C00E4970008C49F000890B585B000AFF86029
:104C1C00B9607A603B603C687A688023D90014489C
:104C2C00230003F033FD124B124A00219954104A11
:104C3C00114B1100180000F095FC0D4B1800FFF7FC
:104C4C00BEFEFB68002B0FD0094B1800FFF756FE79
:104C5C000200B968F8680123FFF720FFFA68074BD8
:104C6C001100180000F07EFCC046BD4605B090BD9A
:104C7C0060290020FF030000E8970008F097000867
:104C8C000CB480B584B000AF786039601C23FB187D
:104C9C00FB60FB68BA6939687868FFF7B5FFC046F6
:104CAC00BD4604B080BC08BC02B018470FB480B538
:104CBC0082B000AF1423FB187B607B683A6900213B
:104CCC000020FFF7A1FFC046BD4602B080BC08BC67
:104CDC0004B0184780B58EB000AF32237B630D4A09
:104CEC00796B3B001800FFF7CBFF0B4A796B3B004D
:104CFC001800FFF7C5FF094B1800FCF7CDFA084A5E
:104D0C00796B3B001800FFF7BBFFC046BD460EB0E9
:104D1C0080BDC046F897000808980008881300006A
:104D2C001498000880B58EB000AF32237B63134A11
:104D3C00796B3B001800FFF7A3FF104A796B3B001F
:104D4C001800FFF79DFF0E4A796B3B001800FFF728
:104D5C0097FF0C4A796B3B001800FFF791FF0A4A4A
:104D6C00796B3B001800FFF78BFFFA23DB00180070
:104D7C00FCF792FAC046BD460EB080BD20980008E4
:104D8C0024980008309800083C98000890B587B02B
:104D9C0002AF78603960664B180000F0C1FB654AC1
:104DAC0039687B681800FFF76BFF634A39687B68CA
:104DBC001800FFF765FF604A39687B681800FFF739
:104DCC005FFF5E4B180000F0ABFB5D4A39687B68F7
:104DDC001800FFF755FF5B4A39687B681800FFF72E
:104DEC004FFF594A39687B681800FFF749FF574B4A
:104DFC00180000F095FB564A39687B681800FFF7DD
:104E0C003FFF544A39687B681800FFF739FF504A56
:104E1C0039687B681800FFF733FF4F4B180000F020
:104E2C007FFB4E4A39687B681800FFF729FF012386
:104E3C005C420C23FA184A49786801235B420193BF
:104E4C000823FB1800932300FFF7D4FDBB68012B4C
:104E5C0002D0052B05D009E0424B180000F060FB96
:104E6C0009E0414B180000F05BFB04E03F4B1800DD
:104E7C0000F056FBC0463E4B180000F051FB3D4A7B
:104E8C0039687B681800FFF7FBFE3B4B180000F0FD
:104E9C0047FB3A4A39687B681800FFF7F1FE384B3C
:104EAC00180000F03DFB374B180000F039FB364B77
:104EBC00180000F035FB354B180000F031FB344B7B
:104ECC00180000F02DFB334B180000F029FB324A80
:104EDC0039687B681800FFF7D3FE304B180000F0E0
:104EEC001FFB2F4A39687B681800FFF7C9FE2D4A53
:104EFC0039687B681800FFF7C3FE2B4B2B4A3968C7
:104F0C007868FFF7BDFE2A4A39687B681800FFF7FE
:104F1C00B7FE284A39687B681800FFF7B1FE264BAC
:104F2C00180000F0FDFAC046BD4605B090BDC04665
:104F3C0048980008209800085C98000864980008BD
:104F4C007898000884980008909800089C980008AD
:104F5C00B098000824980008BC980008DC98000859
:104F6C00E8980008F09800080C99000828990008A7
:104F7C003C99000858990008649900087899000831
:104F8C008499000894990008AC990008BC99000811
:104F9C00D8990008F4990008189A0008209A00087B
:104FAC00F89700084C9A0008180000206C9A00082A
:104FBC00889A0008989A0008A89A000880B58CB0C6
:104FCC0000AF78600C23FB1824220021180002F09B
:104FDC0083FC7B68391D0A22180003F0E1F80300FA
:104FEC00374A9A180C23FB185A617B687A68127836
:104FFC002F3A51424A41D2B29B187B607B68391DD3
:10500C000A22180003F0CCF803005A1E0C23FB18DC
:10501C001A617B687A6812782F3A51424A41D2B2AF
:10502C009B187B607B68391D0A22180003F0B8F8C6
:10503C0002000C23FB18DA607B687A6812782C3A31
:10504C0051424A41D2B29B187B607B68391D0A22BF
:10505C00180003F0A5F802000C23FB189A607B687B
:10506C007A6812783A3A51424A41D2B29B187B6024
:10507C007B68391D0A22180003F092F802000C23F9
:10508C00FB185A607B687A6812783A3A51424A4166
:10509C00D2B29B187B607B68391D0A22180003F082
:1050AC007FF802000C23FB181A600C23FB18180065
:1050BC0002F0E6FC03001800BD460CB080BDC046F3
:1050CC0094F8FFFF80B584B000AF786002E07B6895
:1050DC0001337B607B681B78202BF8D079680F4BF1
:1050EC008022180002F098FF0C4B7F22002199546B
:1050FC000A4BFB600AE0FB681B781F2B03D8FB688C
:10510C0000221A7006E0FB680133FB60FB681B7819
:10511C00002BF0D1C046BD4604B080BDE028002075
:10512C0080B588B000AFF860B9607A603B60BA684F
:10513C00FB6811001800FFF7C3FB03003B617B68A1
:10514C0000221A70BB6A00221A603B69002B56D0F1
:10515C003B691800FFF7B6FF3B691022B9180A2209
:10516C00180003F01DF80300BB61BB69002B46D18E
:10517C003B693A6912782C3A51424A41D2B29B1897
:10518C003B613B692C21180002F01FFF03007B617F
:10519C007B69002B33D07B6901332C21180002F082
:1051AC0014FF03007B617B69002B28D07B693A6973
:1051BC009B1AFB613B685A1EFB699A4202DA3B68F8
:1051CC00013BFB613969FA697B68180002F024FF26
:1051DC00FB697A68D31800221A707B693B613B69C2
:1051EC007A6912782C3A51424A41D2B29B183B61EF
:1051FC003B691800FFF7E2FE0200BB6A1A6001234C
:10520C005B421800BD4608B080BD80B586B000AFCB
:10521C00F860B9607A60BB68002B04D1002348E0C9
:10522C007B6801337B6002F00BFB02007B681B7810
:10523C000133D3181B781A0008231340F0D17B6874
:10524C001B78002B04D1FB6800221A70012330E07C
:10525C007B687B6102E07B6901337B6102F0F0FAD1
:10526C0002007B691B780133D3181B781A000823C2
:10527C00134007D17A697B68D31A1A00BB68013BCB
:10528C009A42E8D3BB68591E7A697B68D31A1A0014
:10529C000B00934200D913003B613A697968FB68B3
:1052AC00180002F010FBFA683B69D31800221A7040
:1052BC003B691800BD4606B080BD000080B582B0C9
:1052CC0000AF786039600C4B1A680C4B1100180059
:1052DC00FFF75CFD084B1968094A084B1800FFF7EB
:1052EC00CFFC3968054A7B681800FFF78EFF030076
:1052FC001800BD4602B080BD84000020602D002047
:10530C00C89A000880B582B000AF78607968064B07
:10531C002022180002F080FE034B0022DA77C046F0
:10532C00BD4602B080BDC0461800002090B587B0C5
:10533C0002AFF860B9607A600D4B1A680D4B110022
:10534C001800FFF723FD0A4B19680B4A094B18008C
:10535C00FFF796FCBC68FA68084906487B6800931E
:10536C002300FFF7DDFE03001800BD4605B090BD1D
:10537C008800002028330020D49A0008E89A0008FE
:10538C0090B587B000AFF860B9607A6000237B619C
:10539C00514B1A68514B11001800FFF7F7FC504B9A
:1053AC00180000F0BDF84C4B19684E4A4B4B1800D6
:1053BC00FFF766FC484B19684B4A484B1800FFF73F
:1053CC005FFC454B1968494A444B1800FFF758FCE1
:1053DC00474B180000F0A4F83F4B1968454A3F4B67
:1053EC001800FFF74DFC3C4B1968FB68424A3B48E0
:1053FC00FFF746FC384B1968BB68404A3748FFF743
:10540C003FFC354B19683E4A344B1800FFF738FC0B
:10541C00314B1C687B681800FAF778FE0300394A98
:10542C002E482100FFF72CFC7A68374B110018002E
:10543C00FFF73CFC284B1968344A28480023FFF737
:10544C002DFB03003B61254A314B1100180000F085
:10545C0089F8214B19682F4A204B1800FFF710FCD4
:10546C001D4B1968294A1D480023FFF717FB030041
:10547C003B611A4A264B1100180000F073F8264ABB
:10548C00164B1100180002F0DCFD031E01D00123A5
:10549C007B61114B1968214A104B1800FFF7F0FB88
:1054AC000D4B1968194A0D480023FFF7F7FA030052
:1054BC003B610A4A164B1100180000F053F8064BDA
:1054CC001968084A054B1800FFF7DAFB7B691800CE
:1054DC00BD4607B090BDC0468C000020F0380020BF
:1054EC00F49A0008049B0008149B0008249B0008F5
:1054FC00349B0008409B0008589B0008709B0008D8
:10550C009C9B0008C89B0008E09B0008204E0000F4
:10551C00E49B0008EC9B0008009C0008049C00081D
:10552C000FB480B5A2B000AF9423FB187B607B68EE
:10553C009022BA18126808217818802103F0A6F876
:10554C000823FB187F22002199540823FB1818000C
:10555C0001F0ECFDC046BD4622B080BC08BC04B0D6
:10556C001847000080B588B000AF786039603B68A0
:10557C00BB617B68002B03D07B68180001F0D6FD63
:10558C000023FB615DE0FB69BA69D2181723FB1895
:10559C0012781A701723FB181B780D2B16D004DC0D
:1055AC00092B18D00A2B0CD024E0272B1DD05C2BF8
:1055BC0002D0222B14D01DE0294B180001F0B6FDAF
:1055CC003CE0284B180001F0B1FD37E0264B1800E9
:1055DC0001F0ACFD32E0254B180001F0A7FD2DE0E9
:1055EC00234B180001F0A2FD28E0224B180001F01B
:1055FC009DFD23E01723FB181B781F2B0ED81723B8
:10560C00FB181A781C490C23FB18180002F0AEFC8E
:10561C000C23FB18180001F089FD0EE00823FB1881
:10562C001722BA1812781A700823FB1800225A7025
:10563C000823FB18180001F079FDC046FB69013303
:10564C00FB61FB69BA69D3181B78002B9BD10B4B00
:10565C00180001F06BFDC046BD4608B080BDC046C9
:10566C00149C0008189C00081C9C0008209C000836
:10567C00249C0008289C00082C9C0008349C0008E2
:10568C0080B584B000AF78600323FB607B681B7827
:10569C00002B21D07B681800FAF738FD03001A00A4
:1056AC007B689A180F4B1000190004231A0002F0A3
:1056BC000AF90CE07A680C490C4B1800FFF760FEF5
:1056CC000300BB60BB68002B01D0012305E0FB6825
:1056DC005A1EFA60002BEDD100231800BD4604B011
:1056EC0080BDC046389C0008D09F000880A00008F0
:1056FC00B0B5AAB004AFF860B9607A603B60012322
:10570C009022BA1813607B6819687B689B881C0010
:10571C007B68DB881D007B681B89324A1020381897
:10572C000293019500940B00802102F0EDFBFB68C5
:10573C001800FAF7EBFC03009422BA1813607B688C
:10574C00002B0ED01023FB181800FAF7DFFC020018
:10575C009423FB181B68D3180333BA68053A934299
:10576C0015D3FB681800FFF78BFF031E04D1002331
:10577C009022BA18136003E002239022BA18136027
:10578C00FB6800221A7000239422BA181360942329
:10579C00FB181B68002B08D13B68A822BA181268AA
:1057AC001149F86802F0E2FB0EE0FB681800FAF70A
:1057BC00ADFC03001A00FB689A180C4B1000190082
:1057CC0002231A0002F07FF81023FA18FB6811006C
:1057DC00180002F0EDFB9023FB181B681800BD4667
:1057EC0026B0B0BD3C9C0008649C0008889C000856
:1057FC00B0B58CB002AF78600023FB600023BB60B7
:10580C0000237B628E4A8F498F4B180001F0E0FC1D
:10581C008B4B1800FFF776FDFFF784FA80231B02F1
:10582C001800FEF799FB8023DB011800FEF782FBC2
:10583C00FA235B001800FBF72FFD0C23FA18834B9F
:10584C0080211800FFF772FD80231B021800FEF761
:10585C0071FB8023DB011800FEF77EFBFA235B0053
:10586C001800FBF719FDFB68002BD5D08023DB015A
:10587C001800FEF771FB80231B021800FEF75AFB81
:10588C00FB68180001F0BAF9714B20211800FFF7E2
:10589C0015FDFFF71FFA6F4B18686F4B5B6864229E
:1058AC0053436E4A9A1800230021FBF746FA030073
:1058BC00012BF0D1FFF736FA8023DB003B623B6A09
:1058CC00180001F0CBFF0300FB61FB69002B04D136
:1058DC00634B1800FDF70BFADDE7FB6900221A7029
:1058EC0080231B021800FEF737FB80235B01180096
:1058FC00FEF720FB5B4B1800FDF7F9F9FA235B0070
:10590C001800FBF7C9FC0C23FA18504B8021180027
:10591C00FFF70CFDFB68002BF0D00823FA18524B54
:10592C0080211800FFF702FD030001330BD04E4A13
:10593C00464B1100180002F056FBBB68FB60FB687D
:10594C00180001F05BF9414A484B1100180001F0B6
:10595C003FFCFA68464B1100180001F039FC00239B
:10596C007B62FEF76BF833E01023FB1819681023E9
:10597C00FB189B881C001023FB18DB881D001023D0
:10598C00FB181B891A003B48304B019300922B00EB
:10599C00220001F01DFC2D4C1023FA18396AF8690D
:1059AC002B4B00932300FFF7A3FE03007B627B6A63
:1059BC00022B05D1FEF75CF92F4B180001F008FC07
:1059CC007B6A002B04D12D4B180001F001FC07E081
:1059DC001023FB181800FEF799F803000133C3D10C
:1059EC007B6A002B10D0FB691800FFF749FE031EE1
:1059FC0006D0FEF73DF9204B180001F0E9FB03E05F
:105A0C001E4B180001F0E4FB1D4B1800FDF76FF95D
:105A1C0080231B021800FEF78DFA80235B0118000F
:105A2C00FEF79AFAFB69180001F022FFFFF752F912
:105A3C00144B1800FBF730FC134B00221A702AE7AA
:105A4C0064A0000874A000088C9C0008B83E0020DC
:105A5C00383F0020DC500020185100201027000097
:105A6C00B89C0008D49C0008583F0020E49C000817
:105A7C00009D0008189D00083C9D0008549D0008DE
:105A8C00689D000888130000B53E002080B500AF6B
:105A9C0080239B0201211800FCF7E2FE8023DB022D
:105AAC0001211800FCF7DCFE80231B0301211800E8
:105ABC00FCF7D6FE01210120FCF7D2FE012140208B
:105ACC00FCF7CEFE80239B0201211800FCF708FF97
