:020000040800F2
:100000000080002059700008CB700008D5700008EF
:1000100000000000000000000000000000000000E0
:10002000000000000000000000000000C107000800
:10003000000000000000000095080008DD0800082E
:10004000C970000800000000C9700008C9700008ED
:10005000C9700008C9700008C9700008C97000089C
:1000600000000000C9700008C9700008C9700008CD
:10007000C9700008C9700008C970000800000000BD
:10008000C9700008C9700008C9700008C97000086C
:10009000C9700008C9700008C9700008C97000085C
:1000A000C9700008C9700008C9700008917500087F
:0C00B000C97000080D7A00080000000074
:1000BC0010B5064C2378002B07D1054B002B02D032
:1000CC00044800E000BF0123237010BDB8020020DB
:1000DC0000000000A89A0008044B10B5002B03D0B8
:1000EC000349044800E000BF10BDC04600000000FA
:1000FC00BC020020A89A000802780B78002A03D0D2
:10010C00013001319A42F7D0D01A70470023C25CFB
:10011C000133002AFBD1581E70470000002243080F
:10012C008B4274D303098B425FD3030A8B4244D3B3
:10013C00030B8B4228D3030C8B420DD3FF220902F5
:10014C0012BA030C8B4202D31212090265D0030BB4
:10015C008B4219D300E0090AC30B8B4201D3CB03AA
:10016C00C01A5241830B8B4201D38B03C01A5241EC
:10017C00430B8B4201D34B03C01A5241030B8B42EE
:10018C0001D30B03C01A5241C30A8B4201D3CB02D9
:10019C00C01A5241830A8B4201D38B02C01A5241BE
:1001AC00430A8B4201D34B02C01A5241030A8B42C1
:1001BC0001D30B02C01A5241CDD2C3098B4201D3D9
:1001CC00CB01C01A524183098B4201D38B01C01A57
:1001DC00524143098B4201D34B01C01A52410309CE
:1001EC008B4201D30B01C01A5241C3088B4201D37D
:1001FC00CB00C01A524183088B4201D38B00C01A2A
:10020C00524143088B4201D34B00C01A5241411A50
:10021C0000D20146524110467047FFE701B500205D
:10022C0000F0F0F802BDC0460029F7D076E7704721
:10023C0003460B437FD4002243088B4274D303093B
:10024C008B425FD3030A8B4244D3030B8B4228D3DC
:10025C00030C8B420DD3FF22090212BA030C8B4202
:10026C0002D31212090265D0030B8B4219D300E0A2
:10027C00090AC30B8B4201D3CB03C01A5241830B27
:10028C008B4201D38B03C01A5241430B8B4201D3D7
:10029C004B03C01A5241030B8B4201D30B03C01A00
:1002AC005241C30A8B4201D3CB02C01A5241830A7A
:1002BC008B4201D38B02C01A5241430A8B4201D3A9
:1002CC004B02C01A5241030A8B4201D30B02C01AD3
:1002DC005241CDD2C3098B4201D3CB01C01A52413A
:1002EC0083098B4201D38B01C01A524143098B42C3
:1002FC0001D34B01C01A524103098B4201D30B01AC
:10030C00C01A5241C3088B4201D3CB00C01A5241D0
:10031C0083088B4201D38B00C01A524143088B4295
:10032C0001D34B00C01A5241411A00D2014652412E
:10033C00104670475DE0CA0F00D04942031000D34D
:10034C004042534000229C4603098B422DD3030AA2
:10035C008B4212D3FC22890112BA030A8B420CD3B2
:10036C00890192118B4208D3890192118B4204D3DB
:10037C0089013AD0921100E08909C3098B4201D35B
:10038C00CB01C01A524183098B4201D38B01C01A95
:10039C00524143098B4201D34B01C01A524103090C
:1003AC008B4201D30B01C01A5241C3088B4201D3BB
:1003BC00CB00C01A524183088B4201D38B00C01A68
:1003CC005241D9D243088B4201D34B00C01A52413F
:1003DC00411A00D20146634652415B10104601D3CC
:1003EC004042002B00D54942704763465B1000D356
:1003FC00404201B5002000F005F802BD0029F8D0FC
:10040C0016E770477047C046002B11D1002A0FD158
:10041C00002900D1002802D00021C943081C07B4D0
:10042C00024802A14018029003BDC046D9FFFFFF4D
:10043C0003B4684601B5029800F006F8019B9E468D
:10044C0002B00CBC7047C046F0B557464E46454608
:10045C00DE46E0B5040083B00D00924699468B420F
:10046C002FD82CD04946504600F0AEF82900060093
:10047C00200000F0A9F8331A9846203B9B4600D583
:10048C0074E053465A4693401F00534642469340ED
:10049C001E00AF4229D826D05B46A41BBD41002BC1
:1004AC0000DA79E0002200230092019301235A46DE
:1004BC0093400193012342469340009319E08242FA
:1004CC00D0D900220023009201930C9B002B01D069
:1004DC001C605D600098019903B03CBC9046994645
:1004EC00A246AB46F0BDA342D6D90022002300920F
:1004FC0001934346002BE8D0FB0772081A4346468B
:10050C007B080EE0AB4201D1A2420CD8A41A9D414B
:10051C00012024196D410021013E24184D41002E6B
:10052C0006D0AB42EED9013E24196D41002EF8D114
:10053C005B460098019900196941002B22DB2B00C6
:10054C005A46D3402A004446E2401C005B46150044
:10055C00002B2CDB26009E40330026004746BE4075
:10056C003200801A994100900191AEE74246202357
:10057C009B1A5246DA40414613004A468A401700FD
:10058C001F4382E7424620239B1A2A0046469A4084
:10059C002300F3401343D5E74246202300219B1A46
:1005AC000022009101920122DA40019282E7424638
:1005BC00202326009B1ADE402F00B4469740664647
:1005CC003B003343C9E7C04610B5002903D100F006
:1005DC0007F8203002E0081C00F002F810BDC046FD
:1005EC001C2101231B04984201D3000C10391B0A57
:1005FC00984201D3000A08391B09984201D300091B
:10060C00043902A2105C40187047C0460403020271
:10061C0001010101000000000000000080B582B063
:10062C0000AF78607B6808331A007B685A607B687F
:10063C00012252429A607B6808331A007B68DA60A8
:10064C007B6808331A007B681A617B6800221A6089
:10065C00C046BD4602B080BD80B582B000AF7860A8
:10066C007B6800221A61C046BD4602B080BD80B5D1
:10067C0084B000AF786039607B685B68FB60FB68B6
:10068C005A683B685A607B685A683B689A60FB689A
:10069C005B683A689A60FB683A685A607B683A68AB
:1006AC005A603B687A681A617B681B685A1C7B68C5
:1006BC001A60C046BD4604B080BD80B584B000AFA2
:1006CC00786039603B681B68BB60BB68013303D141
:1006DC007B681B69FB600CE07B680833FB6002E005
:1006EC00FB685B68FB60FB685B681A68BB689A42D6
:1006FC00F6D9FB685A683B685A603B685B683A6895
:10070C009A603B68FA689A60FB683A685A603B6882
:10071C007A681A617B681B685A1C7B681A60C04631
:10072C00BD4604B080BD80B584B000AF78607B68F6
:10073C005B687A6892689A607B689B687A68526892
:10074C005A607B681B69FB60FB685A687B689A423D
:10075C0003D17B689A68FB685A607B6800221A6137
:10076C00FB681B685A1EFB681A60C046BD4604B085
:10077C0080BD80B584B000AFF860B9607A60FB686A
:10078C00043BFB60FB68802252041A60FB68043B4C
:10079C00FB60BA68FB681A60FB68183BFB607A6800
:1007AC00FB681A60FB68203BFB60FB681800BD46C9
:1007BC0004B080BD084B196808681030F0C8A0461A
:1007CC00A946B246BB4680F309882038F0C871466A
:1007DC000D2001430847C046DC1E0020C046C04621
:1007EC000020006880F3088862B600DFC046C0466F
:1007FC0080B500AF0C4B0C4A1268FF2109040A4368
:10080C001A60094B084A1268FF2109060A431A604C
:10081C0000F072F8054B00221A60FFF7E1FF00238D
:10082C001800BD4680BDC04620ED00E00000002051
:10083C0080B500AF034B802252051A60C046BD46FE
:10084C0080BDC04604ED00E080B500AF72B6044B2D
:10085C001B685A1C024B1A60C046BD4680BDC04680
:10086C000000002080B500AF064B1B685A1E054BDC
:10087C001A60044B1B68002B00D162B6C046BD4603
:10088C0080BDC04600000020EFF309800E4B1A68B3
:10089C0020381060F0C044464D4656465F46F0C0C6
:1008AC0008B572B600F0A0FE62B60CBC1168086800
:1008BC001030F0C8A046A946B246BB4680F3098862
:1008CC002038F0C81847C046DC1E0020C046C04681
:1008DC0080B582B000AF074B802252051A6000230E
:1008EC007B6072B600F0DAFD62B6C046BD4602B05F
:1008FC0080BDC04604ED00E080B500AF044B054A56
:10090C001A60054B07221A60C046BD4680BDC04622
:10091C0014E000E0BF5D000010E000E080B584B0A2
:10092C0000AF78600023FB607B680722134004D083
:10093C007B680722934308337B6000F011FD134B57
:10094C001A687B68D318124A934212D80F4B1A6854
:10095C007B68D2180D4B1B689A420AD90B4B1A684C
:10096C000C4BD318FB60094B1A687B68D218074BE9
:10097C001A6000F001FDFB68002B01D105F058FD59
:10098C00FB681800BD4604B080BDC046D81E0020D0
:10099C00FF1B0000D802002080B582B000AF786049
:1009AC00C046BD4602B080BD80B500AF034B1B688E
:1009BC00E0225201D31A1800BD4680BDD81E00207B
:1009CC0080B582B000AF786039607B68002B01D1B4
:1009DC0072B6FEE7FFF738FF7B681A687B68D96B45
:1009EC007B681B6C4B43D2187B685A607B68002277
:1009FC009A637B681A687B689A607B681A687B6864
:100A0C00DB6B591E7B681B6C4B43D2187B68DA601E
:100A1C007B68012252425A647B68012252429A64DA
:100A2C003B68002B0ED17B681B69002B14D07B68B4
:100A3C001033180000F0AEFE0300012B0CD1FFF7B1
:100A4C00F7FE09E07B6810331800FFF7E7FD7B68C1
:100A5C0024331800FFF7E2FDFFF704FF0123180011
:100A6C00BD4602B080BD80B588B000AFF860B960FB
:100A7C00FB1D1A700023FB61FB68002B29D04C2056
:100A8C00FFF74CFF0300BB61BB69002B21D0FB6857
:100A9C00BA68534301337B617B691800FFF73EFF53
:100AAC000200BB691A60BB691B68002B0DD0BB69C7
:100ABC00FA68DA63BB69BA681A64BB690121180069
:100ACC00FFF77EFFBB69FB6103E0BB691800FFF712
:100ADC0063FFFB69002B01D172B6FEE7FB691800BE
:100AEC00BD4608B080BD80B584B000AF0200FB1DD0
:100AFC001A704C20FFF712FF0300FB60FB68002B01
:100B0C002CD0FB6800225A60FB6800221A60FB683C
:100B1C0000229A60FB680022DA60FB6800229A636C
:100B2C00FB680122DA63FB6800221A64FB6801226D
:100B3C0052425A64FB68012252429A64FB68103399
:100B4C001800FFF76BFDFB6824331800FFF766FDF8
:100B5C00F86800230022002100F00AF8FB68002B43
:100B6C0001D172B6FEE7FB681800BD4604B080BD2B
:100B7C0080B588B000AFF860B9607A603B60002344
:100B8C00FB61FB68002B01D172B6FEE7BB68002B42
:100B9C0003D1FB681B6C002B01D1012300E0002367
:100BAC00002B01D172B6FEE7FFF74EFEFB689A6B85
:100BBC00FB68DB6B9A4217D23A68B968FB6818007D
:100BCC0000F082F9FB685B6A002B09D0FB682433C8
:100BDC00180000F0DFFD0300012B01D1FFF728FE08
:100BEC00FFF740FE012355E07B68002B03D1FFF794
:100BFC0039FE00234EE0FB69002B06D11423FB18B1
:100C0C00180000F01FFE0123FB61FFF72BFE00F024
:100C1C00A7FBFFF719FEFB685B6C013302D1FB6885
:100C2C0000225A64FB689B6C013302D1FB680022E2
:100C3C009A64FFF717FE3A1D1423FB1811001800D5
:100C4C0000F01AFE031E1ED1FB68180000F01AFA01
:100C5C00031E11D0FB6810337A681100180000F0E5
:100C6C0037FDFB68180000F0B0F900F085FB031E9F
:100C7C009AD1FFF7DDFD97E7FB68180000F0A5F9A6
:100C8C0000F07AFB90E7FB68180000F09EF900F08A
:100C9C0073FB00231800BD4608B080BD80B586B03C
:100CAC0000AFF860B9607A603B60FB68002B01D143
:100CBC0072B6FEE7BB68002B03D1FB681B6C002BE4
:100CCC0001D1012300E00023002B01D172B6FEE715
:100CDC0000233B6172B6FB689A6BFB68DB6B9A4234
:100CEC0023D23A68B968FB68180000F0EDF8FB688D
:100CFC009B6C013311D1FB685B6A002B12D0FB6833
:100D0C002433180000F046FD031E0BD07B68002B2B
:100D1C0008D07B6801221A6004E0FB689B6C5A1CAB
:100D2C00FB689A6401237B6101E000237B6162B65E
:100D3C007B691800BD4606B080BD80B588B000AF99
:100D4C00F860B9607A603B600023FB61FB68002BA4
:100D5C0001D172B6FEE7BB68002B03D1FB681B6C9C
:100D6C00002B01D1012300E00023002B01D172B62E
:100D7C00FEE7FFF769FDFB689B6B002B3CD0FB6823
:100D8C00DB68BB61BA68FB681100180000F0F7F86B
:100D9C003B68002B1CD1FB689B6B5A1EFB689A634B
:100DAC00FB681B68002B04D100F002FF0200FB68FB
:100DBC005A60FB681B69002B1AD0FB6810331800B3
:100DCC0000F0E8FC0300012B12D1FFF731FD0FE01E
:100DDC00FB68BA69DA60FB685B6A002B08D0FB68B9
:100DEC002433180000F0D6FC031E01D0FFF720FDC1
:100DFC00FFF738FD012363E07B68002B03D1FFF77D
:100E0C0031FD00235CE0FB69002B06D11023FB189D
:100E1C00180000F017FD0123FB61FFF723FD00F024
:100E2C009FFAFFF711FDFB685B6C013302D1FB6885
:100E3C0000225A64FB689B6C013302D1FB680022D0
:100E4C009A64FFF70FFD3A1D1023FB1811001800D0
:100E5C0000F012FD031E2CD1FB68180000F0FFF807
:100E6C00031E1FD0FB681B68002B08D1FFF7ECFC9E
:100E7C00FB685B68180000F0C5FEFFF7F3FCFB682D
:100E8C0024337A681100180000F022FCFB6818006B
:100E9C0000F09BF800F070FA031E00D069E7FFF732
:100EAC00C7FC66E7FB68180000F08FF800F064FAE6
:100EBC005FE7FB68180000F088F800F05DFA00238B
:100ECC001800BD4608B080BD80B584B000AFF86096
:100EDC00B9607A60FB681B6C002B0CD1FB681B683B
:100EEC00002B43D1FB685B68180000F0E3FEFB6845
:100EFC0000225A603AE07B68002B19D1FB68986895
:100F0C00FB681A6CBB68190006F089FEFB689A68CE
:100F1C00FB681B6CD218FB689A60FB689A68FB68CC
:100F2C005B689A4222D3FB681A68FB689A601DE0E2
:100F3C00FB68D868FB681A6CBB68190006F06FFE7A
:100F4C00FB68DA68FB681B6C5B42D218FB68DA60E2
:100F5C00FB68DA68FB681B689A4207D2FB685A6820
:100F6C00FB681B6C5B42D218FB68DA60FB689B6BFE
:100F7C005A1CFB689A63C046BD4604B080BD80B560
:100F8C0082B000AF786039607B681B68002B18D08A
:100F9C007B68DA687B681B6CD2187B68DA607B68CC
:100FAC00DA687B685B689A4203D37B681A687B6853
:100FBC00DA607B68D9687B681A6C3B68180006F0AD
:100FCC002EFEC046BD4602B080BD80B582B000AFDB
:100FDC007860FFF739FC11E07B685B6A002B12D05C
:100FEC007B682433180000F0D5FB031E01D000F001
:100FFC0091FC7B689B6C5A1E7B689A647B689B6C2B
:10100C00002BE9DC00E0C0467B68012252429A6466
:10101C00FFF728FCFFF718FC11E07B681B69002B1D
:10102C0012D07B681033180000F0B4FB031E01D003
:10103C0000F070FC7B685B6C5A1E7B685A647B68A2
:10104C005B6C002BE9DC00E0C0467B68012252425D
:10105C005A64FFF707FCC046BD4602B080BD80B5A0
:10106C0084B000AF7860FFF7EFFB7B689B6B5A4254
:10107C005341DBB2FB60FFF7F5FBFB681800BD4684
:10108C0004B080BD80B584B000AF7860FFF7DCFBA6
:10109C007B689A6B7B68DB6BD31A5A425341DBB289
:1010AC00FB60FFF7DFFBFB681800BD4604B080BD9A
:1010BC0080B582B000AF78603960FFF7C5FB7B6804
:1010CC005B6C013302D17B6800225A647B689B6C99
:1010DC00013302D17B6800229A64FFF7C3FB7B6863
:1010EC009B6B002B06D17B6824333A6811001800E7
:1010FC0000F026FB7B681800FFF767FFC046BD4673
:10110C0002B080BD90B58BB002AFF860B9603B60A7
:10111C00BB1D1A80FB68002B01D172B6FEE73B6B3E
:10112C00042B01D972B6FEE7BA6BBB1D1B881100EC
:10113C00180000F0F5FC0300BB61BB69002B00D16B
:10114C0082E0BB691A6BBB1D1B884B498C46634400
:10115C009B00D3187B617B69072293437B617B697E
:10116C000722134001D072B6FEE7FC6B3A6BB968EC
:10117C00B869BB1D1B880093230000F0E7FB3A689D
:10118C00F9687B691800FFF7F4FA0200BB691A6072
:10119C00BB691B681A000723134001D072B6FEE727
:1011AC007B6B002B02D07B6BBA691A60FFF74CFB90
:1011BC00324B1B685A1C314B1A60314B1B68002B8D
:1011CC0009D12F4BBA691A602C4B1B68012B0FD11C
:1011DC0000F0F2FB0CE02B4B1B68002B08D1284BCA
:1011EC001B68DA6A3B6B9A4202D8254BBA691A60C3
:1011FC00BB69DA6A244B1B689A4203D9BB69DA6A69
:10120C00214B1A60214B1B685A1C204B1A60BB697E
:10121C00DA6A1F4B1B689A4203D9BB69DA6A1C4B0A
:10122C001A60BB69DA6A13009B009B189B00194A71
:10123C009A18BB69043319001000FFF718FA012340
:10124C00FB61FFF70FFB02E001235B42FB61FB69D3
:10125C00012B0BD10B4B1B68002B07D0084B1B68C9
:10126C00DA6A3B6B9A4201D2FFF7E2FAFB6918008B
:10127C00BD4609B090BDC046FFFFFF3FB41F002024
:10128C00DC1E0020C41F0020BC1F0020D81F002023
:10129C00C01F0020E01E002080B584B000AF786035
:1012AC000023FB607B68002B14D000F059F80E4B28
:1012BC001A687B68D318BB600C4B1B68043318008E
:1012CC00FFF731FABB68180000F0F4FB00F054F89B
:1012DC000300FB60FB68002B01D1FFF7A9FAC046A5
:1012EC00BD4604B080BDC046B81F0020DC1E0020E7
:1012FC0080B586B004AF164916480023039300232B
:10130C000293002301930023009300234622FFF74E
:10131C00F9FE03007B607B68012B03D100F008FD14
:10132C0003007B607B68012B08D172B60A4B01224B
:10133C001A600A4B00221A60FFF75AFA7B68002BDE
:10134C0001D172B6FEE7C046BD4602B080BDC046B4
:10135C00C09A000835190008C41F0020B81F0020CF
:10136C0080B500AF034B1B685A1C024B1A60C04679
:10137C00BD4680BDC81F002090B583B000AF0023D0
:10138C007B60354B1B68002B01D172B6FEE7FFF773
:10139C005BFA314B1B685A1E2F4B1A602E4B1B6885
:1013AC00002B52D12D4B1B68002B4ED000233B60E1
:1013BC0027E02B4BDB68DC68230018331800FFF7A1
:1013CC00B2F9231D1800FFF7AEF9E26A254B1B6832
:1013DC009A4202D9E26A234B1A60E26A13009B001C
:1013EC009B189B00204A9B18221D11001800FFF728
:1013FC003EF9E26A1D4B1B68DB6A9A4201D301235A
:10140C003B60174B1B68002BD3D1194B1B68002B6F
:10141C000DD006E000F042F8154B1B685A1E144B19
:10142C001A60134B1B68002BF4D101233B603B6803
:10143C00012B03D00F4B1B68012B06D101237B60C2
:10144C000C4B00221A60FFF7F3F9FFF70BFA7B68DD
:10145C001800BD4603B090BDC81F0020B41F00206B
:10146C00741F0020C01F0020E01E0020DC1E002086
:10147C00CC1F0020D01F002080B582B000AFFFF73A
:10148C00E3F9054B1B687B60FFF7ECF97B681800F0
:10149C00BD4602B080BDC046B81F002080B584B0E8
:1014AC0000AF484B1B68002B00D079E0464B1B6803
:1014BC005A1C454B1A60444B1B68002B28D1434BDC
:1014CC001B681B68002B01D072B6FEE73F4B1B68F4
:1014DC00FB603F4B1A683D4B1A603D4BFA681A6033
:1014EC003C4B1B685A1C3B4B1A60384B1B681B68E7
:1014FC00002B04D1384B012252421A6008E0334BC6
:10150C001B68DB68DB68BB60BB685A68324B1A60CF
:10151C002D4B1A68304B1B689A4248D32B4B1B68D7
:10152C001B68002B04D12C4B012252421A603EE066
:10153C00264B1B68DB68DB68BB60BB685B687B6049
:10154C00214B1A687B689A4203D2234B7A681A6043
:10155C002DE0BB6804331800FFF7E5F8BB689B6A05
:10156C00002B04D0BB6818331800FFF7DCF8BB68FD
:10157C00DA6A1A4B1B689A4203D9BB68DA6A174BB2
:10158C001A60BB68DA6A13009B009B189B00144A14
:10159C009A18BB68043319001000FFF768F8BDE710
:1015AC00104B1B685A1C0F4B1A6004F007FF0D4BB5
:1015BC001B68002B01D104F001FFC046BD4604B0EE
:1015CC0080BDC046C81F0020B81F00206C1F002023
:1015DC00701F0020D41F002004000020C01F00201A
:1015EC00E01E0020CC1F002080B582B000AF324B33
:1015FC001B68002B03D0314B01221A6057E0304B93
:10160C001B681A682E4B1B681B6B9A4208D82C4B14
:10161C001A682B4B1B6834331900100004F00BFFB5
:10162C00274B1B681B6B27491422180006F0E8FA9D
:10163C00031E14D0224B1A68214B1B68343319003B
:10164C00100004F0F8FE0AE01F4B1B68002B01D1C0
:10165C0072B6FEE71C4B1B685A1E1B4B1A601A4BCA
:10166C001A681A4913009B009B189B005B58002BAF
:10167C00EAD0154B1A6813009B009B189B00134A69
:10168C009B187B607B685B685A687B685A607B68D8
:10169C005A687B6808339A4204D17B685B685A6845
:1016AC007B685A607B685B68DA68054B1A60C046D9
:1016BC00BD4602B080BDC046C81F0020D01F002010
:1016CC00DC1E002094A70008C01F0020E01E002094
:1016DC0080B584B000AF786039607B68002B01D195
:1016EC0072B6FEE7134B1B6818331A007B681100A7
:1016FC001800FEF7E2FF0F4B1B6804331800FFF7CE
:10170C0012F83B68013308D10A4B1B681A1D0A4BAF
:10171C0011001800FEF7ABFF08E0084B1A683B6895
:10172C00D318FB60FB68180000F0C4F9C046BD4636
:10173C0004B080BDDC1E0020A01F0020B81F0020BC
:10174C0080B584B000AF786039607B68002B01D124
:10175C0072B6FEE70D4B1B6818331A007B6811003C
:10176C001800FEF784FF094B1B6804331800FEF7C2
:10177C00DAFF074B1A683B68D318FB60FB6818004C
:10178C0000F098F9C046BD4604B080BDDC1E0020B8
:10179C00B81F002080B584B000AF78607B68DB6830
:1017AC00DB68BB60BB68002B01D172B6FEE7BB687F
:1017BC0018331800FEF7B7FF1D4B1B68002B1DD10B
:1017CC00BB6804331800FEF7AEFFBB68DA6A194B2E
:1017DC001B689A4203D9BB68DA6A164B1A60BB685D
:1017EC00DA6A13009B009B189B00134A9A18BB687B
:1017FC00043319001000FEF73AFF07E0BB681833FA
:10180C001A000E4B11001800FEF731FFBB68DA6AA4
:10181C000B4B1B68DB6A9A4202D30123FB6001E08D
:10182C000023FB60FB681800BD4604B080BDC046B9
:10183C00C81F0020C01F0020E01E0020741F0020C5
:10184C00DC1E002080B582B000AF78607B68002B76
:10185C0001D172B6FEE7064B1A687B681A60054B1D
:10186C001A687B685A60C046BD4602B080BDC0464F
:10187C00D41F0020B81F002080B584B000AF786062
:10188C0039607B68002B01D172B6FEE73B68002BF8
:10189C0001D172B6FEE7FEF7D7FF3B681B68013338
:1018AC0002D10023FB602AE07B681A68174B1B6887
:1018BC009A4208D07B685A68154B1B689A4202D82A
:1018CC000123FB601BE0124B1A687B685B68D21A21
:1018DC003B681B689A4210D20D4B1A687B685B6898
:1018EC00D21A3B681B689A1A3B681A607B6818000E
:1018FC00FFF7A8FF0023FB6001E00123FB60FEF76C
:10190C00B1FFFB681800BD4604B080BDD41F002099
:10191C00B81F002080B500AF024B01221A60C046F0
:10192C00BD4680BDD01F002080B582B000AF78606E
:10193C0000F086F8044B1B68012B01D9FEF778FFE9
:10194C0004F07FFDF4E7C046E01E002080B584B0B3
:10195C0000AFF860B9607A603B60FB683433B968FB
:10196C000A22180006F042FCFB683D220021995423
:10197C007B68042B01D904237B60FB687A68DA62EC
:10198C00FB687A681A64FB6804331800FEF764FE7F
:10199C00FB6818331800FEF75FFEFB68FA681A61E3
:1019AC007B680522D21AFB689A61FB68FA685A6256
:1019BC00C046BD4604B080BD80B582B000AF0023E8
:1019CC007B600CE07A6813009B009B189B00144A08
:1019DC009B181800FEF722FE7B6801337B607B6846
:1019EC00042BEFD90F4B1800FEF718FE0E4B180006
:1019FC00FEF714FE0D4B1800FEF710FE0C4B1800F2
:101A0C00FEF70CFE0B4B1800FEF708FE0A4B054ABE
:101A1C001A600A4B044A1A60C046BD4602B080BD2B
:101A2C00E01E0020441F0020581F0020741F0020BF
:101A3C00881F0020A01F00206C1F0020701F00209A
:101A4C0080B582B000AF184B1B68002B27D0FFF776
:101A5C0087FC164B1B685A425341DBB27B60FFF785
:101A6C008BFC7B68002B1AD1FEF7EEFE0F4BDB686C
:101A7C00DB683B603B6804331800FEF754FE0C4BEC
:101A8C001B685A1E0A4B1A60074B1B685A1E064BE2
:101A9C001A60FEF7E7FE3B68180000F077F8C046C6
:101AAC00BD4602B080BDC0469C1F0020881F002090
:101ABC00B41F002080B582B000AF7860134B1B6858
:101ACC007A685A60124B1B687A689A4209D2114B99
:101ADC001A680E4B1B68043319001000FEF7EDFD5D
:101AEC0010E00D4B1A68094B1B68043319001000E9
:101AFC00FEF7E3FD094B1B687A689A4202D2074B4A
:101B0C007A681A60C046BD4602B080BDDC1E00205B
:101B1C00B81F0020701F00206C1F00200400002044
:101B2C0080B584B000AF02003960BB1D1A80442020
:101B3C00FEF7F4FE0300FB60FB68002B21D03B6832
:101B4C00002B07D1BB1D1B889B001800FEF7E6FE7F
:101B5C00020000E03A68FB681A63FB681B6B002B01
:101B6C0006D1FB681800FEF717FF0023FB6008E0A6
:101B7C00FB68186BBB1D1B889B001A00A52106F087
:101B8C0057F8FB681800BD4604B080BD80B582B024
:101B9C0000AF78607B681B6B1800FEF7FDFE7B685E
:101BAC001800FEF7F9FEC046BD4602B080BD00002D
:101BBC0080B582B000AF044B1B687B607B6818005B
:101BCC00BD4602B080BDC046DC1E002080B582B090
:101BDC0000AF0A4B1B68002B02D100237B6008E08E
:101BEC00074B1B68002B02D101237B6001E0022311
:101BFC007B607B681800BD4602B080BDC41F00200E
:101C0C00C81F002080B584B000AF78607B68FB6093
:101C1C007B68002B01D172B6FEE7FB68DA6A224BB7
:101C2C001B68DB6A9A423AD21F4B1B68DB6A05229F
:101C3C00D21AFB689A61FB685969FB68DA6A13006F
:101C4C009B009B189B00194A9B18994222D1FB6858
:101C5C0004331800FEF767FD134B1B68DA6AFB6848
:101C6C00DA62FB68DA6A124B1B689A4203D9FB688A
:101C7C00DA6A0F4B1A60FB68DA6A13009B009B1838
:101C8C009B000A4A9A18FB68043319001000FEF7EF
:101C9C00EEFC04E0044B1B68DA6AFB68DA62C046AF
:101CAC00BD4604B080BDC046DC1E0020E01E0020F6
:101CBC00C01F002080B584B000AF78607B68FB60EB
:101CCC007B68002B2CD0FB68DA6AFB681B6C9A4291
:101CDC0026D0FB6804331800FEF725FDFB681A6C50
:101CEC00FB68DA62FB68DB6A0522D21AFB689A6130
:101CFC00FB68DA6A0C4B1B689A4203D9FB68DA6AF8
:101D0C00094B1A60FB68DA6A13009B009B189B0056
:101D1C00064A9A18FB68043319001000FEF7A7FC5A
:101D2C00C046BD4604B080BDC01F0020E01E002090
:101D3C0080B586B004AF00237B6000F055FA0F4BE2
:101D4C001B68002B0FD00E490E4800230393002371
:101D5C000293002301930323009300234622FFF7F1
:101D6C00D1F903007B607B68002B01D172B6FEE7D2
:101D7C007B681800BD4602B080BDC0460C20002018
:101D8C00C89A0008991E000880B588B000AFF860AA
:101D9C00B9607A603B600023FB611E4B1B68002B13
:101DAC0033D01023FB18BA681A601023FB187A681A
:101DBC005A601023FB18FA689A603B68002B1AD102
:101DCC00FFF704FF0300012B0AD1124B1868BA6A03
:101DDC001023F9180023FEF7CBFE0300FB6114E07F
:101DEC000C4B18681023F91800230022FEF7C0FED4
:101DFC000300FB6109E0074B18683A681023F918D7
:101E0C000023FEF74BFF0300FB61FB691800BD4686
:101E1C0008B080BD0C20002080B586B002AF786081
:101E2C003960194B1B68DB68DB68FB60FB680433AB
:101E3C001800FEF778FCFB68DB69012B1AD1FB68F4
:101E4C009A697B68D1187B683A68F86800F0AEF83C
:101E5C000300012B0ED17A68F8680023009300234D
:101E6C000021FFF791FF0300BB60BB68002B01D181
:101E7C0072B6FEE7FB685B6AFA6810009847C046CA
:101E8C00BD4604B080BDC0460420002080B584B09F
:101E9C0000AF78600823FB18180000F043F803002B
:101EAC00FB60BA68FB681100180000F003F800F042
:101EBC00BFF8EFE780B584B000AF78603960FFF70A
:101ECC004FFA0823FB18180000F04CF80300FB60D5
:101EDC00BB68002B1ED13B68002B0CD17A68FB68C9
:101EEC009A4208D8FFF748FAFA687B681100180084
:101EFC00FFF792FF10E00A4B18687A68FB68D31A58
:101F0C001900FFF7D5F8FFF737FA031E04D1FEF7D7
:101F1C008FFC01E0FFF730FAC046BD4604B080BD2F
:101F2C000C20002080B584B000AF78600C4B1B688F
:101F3C001B685A425341DBB21A007B681A607B68FB
:101F4C001B68002B05D1064B1B68DB681B68FB600C
:101F5C0001E00023FB60FB681800BD4604B080BDA7
:101F6C000420002080B584B000AF7860FFF784FABD
:101F7C000300FB600C4B1B68FA689A4208D20A4BB0
:101F8C001B68180000F0D4F87B6801221A6002E08C
:101F9C007B6800221A60044BFA681A60FB68180010
:101FAC00BD4604B080BDC0461020002080B586B070
:101FBC0000AFF860B9607A603B6000237B61FB681E
:101FCC00BA685A60FB68FA681A61BA687B689A4208
:101FDC0012D87A683B68D21AFB689B699A4202D382
:101FEC0001237B611BE0104B1A68FB68043319005A
:101FFC001000FEF762FB12E07A683B689A4206D248
:10200C00BA683B689A4202D301237B6107E0074B15
:10201C001A68FB68043319001000FEF74EFB7B694D
:10202C001800BD4606B080BD08200020042000200A
:10203C0080B58AB002AF3B1D1800FFF793FF030079
:10204C00FB6165E00823FB189B68BB61BB69002B37
:10205C0008D0BB695B69002B04D0BB690433180042
:10206C00FEF761FB0823FB181B68012B50D002DC28
:10207C00002B05D04BE0022B2FD0032B42D046E097
:10208C000823FB185A68BB699B69D1180823FB18F5
:10209C005B68FA69B869FFF789FF0300012B37D138
:1020AC00BB695B6ABA6910009847BB69DB69012B95
:1020BC002ED10823FB185A68BB699B69D218B869E2
:1020CC000023009300230021FFF75EFE03007B61D9
:1020DC007B69002B1CD172B6FEE70823FB185A68EB
:1020EC00BB699A61BB699B69002B01D172B6FEE793
:1020FC00BB699A69FB69D118FB69FA69B869FFF782
:10210C0055FF05E0BB691800FEF746FC00E0C04631
:10211C00064B18680823F91800230022FEF70DFE61
:10212C00031E8FD1C046BD4608B080BD0C200020D8
:10213C0080B58AB002AF78603EE0294B1B68DB6843
:10214C001B68FB61264B1B68DB68DB68BB61BB69EA
:10215C0004331800FEF7E7FABB695B6ABA69100032
:10216C009847BB69DB69012B26D1BB699A69FB696E
:10217C00D3187B617A69FB699A420ED9BB697A697B
:10218C005A60BB69BA691A61154B1A68BB6904338A
:10219C0019001000FEF791FA0EE0FA69B8690023F5
:1021AC00009300230021FFF7EFFD03003B613B6927
:1021BC00002B01D172B6FEE7094B1B681B68002B84
:1021CC00BBD1074B1B68FB60064B1A68044B1A60AB
:1021DC00044BFA681A60C046BD4608B080BDC046C4
:1021EC00042000200820002080B500AFFEF72CFB57
:1021FC000F4B1B68002B15D10E4B1800FEF70EFA77
:10220C000D4B1800FEF70AFA0C4B0A4A1A600C4BDD
:10221C00094A1A6000220C210520FEF724FC02005A
:10222C00034B1A60FEF71EFBC046BD4680BDC04680
:10223C000C200020DC1F0020F01F002004200020B8
:10224C000820002080B586B000AF7860396000238C
:10225C007B6100233B610023FB6000237B617CE0FE
:10226C0001227B699A4013003B613B681B683A6909
:10227C001340FB60FA683B699A426BD13B681B794F
:10228C00012B03D03B681B79022B34D17B689B68F4
:10229C007A695200032191400A00D2431A407B68AC
:1022AC009A607B689A683B685B7919007B695B0074
:1022BC0099400B001A437B689A607B689B889BB2A1
:1022CC007A6992B2110001228A4092B2D24392B240
:1022DC0013409AB27B689A807B689B889AB23B6861
:1022EC009B7919007B699BB299400B009BB21343FD
:1022FC009AB27B689A807B681B687A6952000321CA
:10230C0091400A00D2431A407B681A607B681A68B5
:10231C003B681B7919007B695B0099400B001A43E1
:10232C007B681A607B68DB687A6992B25200032181
:10233C0091400A00D2431A407B68DA607B68DA6805
:10234C003B68DB7919007B695B0099400B001A43F1
:10235C007B68DA607B6901337B617B690F2B00D86A
:10236C007EE7C046BD4606B080BD80B582B000AFEA
:10237C00786008001100BB1C021C1A807B1C0A1C14
:10238C001A707B1C1B78002B04D0BB1C1A887B6832
:10239C009A6103E07B68BA1C12881A85C046BD4658
:1023AC0002B080BD80B582B000AF78600A00BB1C63
:1023BC001A807B68BA1C12889A82C046BD4602B04D
:1023CC0080BD80B584B000AF786008001100BB1CE4
:1023DC00021C1A807B1C0A1C1A700023FB60002351
:1023EC00BB607B1C1A78BB1C1B8807210B409B0015
:1023FC009A401300FB60BB1C1B88DB089BB21800C7
:10240C00BB1C1B88DB089BB21A007B68083292004D
:10241C00D358BA1C128807210A4092000F21914010
:10242C000A00D2431A4011007B6802000832920065
:10243C00D150BB1C1B88DB089BB21A007B6808328E
:10244C009200D258FB681343BB60BB1C1B88DB0893
:10245C009BB21A007B6808329200B968D150C04612
:10246C00BD4604B080BD000080B584B000AF78607C
:10247C000023FB607B689B78002B39D0244A7B6857
:10248C001B789B08DBB2C0339B009B58FB607B68BE
:10249C001B781A0003231340DB00FF229A40130021
:1024AC00DA43FB681340FB607B685B789B01FF227F
:1024BC001A407B681B78190003230B40DB009A4001
:1024CC001300FA681343FB6011497B681B789B0867
:1024DC00DBB2C0339B00FA685A500D4B7A68127805
:1024EC0011001F220A40012191400A001A600AE0E3
:1024FC0007497B681B781A001F23134001229A405E
:10250C00130080228B50C046BD4604B080BDC0462F
:10251C0000E100E080B588B000AF78600023BB61BB
:10252C0000237B6100233B610023FB600023BB6025
:10253C000023FB61A84B5B680C221340BB61BB6999
:10254C00042B0CD002D8002B05D03BE0082B0AD072
:10255C000C2B33D036E07B68A04A1A6036E07B68DF
:10256C009F4A1A6032E09C4B5A68F0239B0313403D
:10257C007B61994B5A68C0235B0213403B617B69BA
:10258C009B0C02337B613B69002B04D17B69954A20
:10259C005343FB610EE0904BDB6A0F221340013377
:1025AC00FB60F9688E48FDF7B9FD03001A007B69E2
:1025BC005343FB617B68FA691A6007E07B688A4ABF
:1025CC001A6003E07B68854A1A60C046824B5B68E0
:1025DC00F0221340BB61BB691B09BB61834ABB6919
:1025EC00D3181B78DBB2BB607B681A68BB68DA4017
:1025FC007B685A60784B5A68E023DB001340BB6160
:10260C00BB691B0ABB61794ABB69D3181B78DBB267
:10261C00BB607B685A68BB68DA407B689A606E4B1B
:10262C001A6B80235B001A4080235B009A4203D014
:10263C007B686F4ADA6013E0674B5A688023DB01D2
:10264C001A408023DB019A4205D07B689B685A08AC
:10265C007B68DA6004E07B689B689A087B68DA60C8
:10266C005D4B1B6B40221340402B03D07B68614AAF
:10267C001A6103E07B68802212021A61564B1B6BB5
:10268C0010221340102B03D07B68544A5A6103E08C
:10269C007B681A687B685A614F4B1B6B0322134093
:1026AC0004D17B689A687B689A611EE04A4B1B6B6D
:1026BC0003221340012B04D17B681A687B689A6152
:1026CC0013E0454B1B6B03221340022B04D17B6898
:1026DC00802212029A6108E03F4B1B6B03221340CD
:1026EC00032B02D17B683D4A9A613B4B1A6BC0238A
:1026FC009B02134004D17B689A687B68DA6127E0FF
:10270C00354B1A6BC0239B021A4080235B029A4202
:10271C0004D17B681A687B68DA6119E02E4B1A6B5E
:10272C00C0239B021A4080239B029A4204D17B68EF
:10273C0080221202DA610BE0274B1A6BC0239B023A
:10274C001A40C0239B029A4202D17B68234ADA6169
:10275C00214B1A6BC0231B03134004D17B689A686E
:10276C007B681A6227E01C4B1A6BC0231B031A40B0
:10277C008023DB029A4204D17B681A687B681A6258
:10278C0019E0154B1A6BC0231B031A4080231B0343
:10279C009A4204D17B68802212021A620BE00E4B23
:1027AC001A6BC0231B031A40C0231B039A4202D18D
:1027BC007B680A4A1A62084B1B6B80221340802BE1
:1027CC0003D07B68084A5A6202E07B68FA695A6255
:1027DC00C046BD4608B080BD0010024000127A0011
:1027EC00001BB70000093D00006CDC020800002053
:1027FC00809FD5001280000080B582B000AF786059
:10280C000A00FB1C1A70FB1C1B78002B06D0094B12
:10281C00084A51697A680A435A6106E0054B054A31
:10282C0052697968C9430A405A61C046BD4602B034
:10283C0080BDC0460010024080B582B000AF786009
:10284C000A00FB1C1A70FB1C1B78002B06D0094BD2
:10285C00084A91697A680A439A6106E0054B054A71
:10286C0092697968C9430A409A61C046BD4602B074
:10287C0080BDC0460010024080B582B000AF7860C9
:10288C000A00FB1C1A70FB1C1B78002B06D0094B92
:10289C00084AD1697A680A43DA6106E0054B054AB1
:1028AC00D2697968C9430A40DA61C046BD4602B0B4
:1028BC0080BDC0460010024080B584B000AF786087
:1028CC000A00FB1C1A700023FB607B68FB60FB6832
:1028DC000C33FB60FB68FA1C12781A70C046BD46BC
:1028EC0004B080BD80B584B000AF78600023FB607D
:1028FC007B68FB60FB680C33FB60FB681B78DBB20E
:10290C001800BD4604B080BD80B590B000AF7860B3
:10291C0039600023FB630023BB6300237B637B686C
:10292C001B68012293431A007B681A607B685B6802
:10293C007B637B6B504A13407B633B689B687A6B71
:10294C0013437B637B687A6B5A607B681B687B6381
:10295C007B6B4A4A13407B633B685A683B68DB6875
:10296C001A433B681B6913437A6B13437B637B6885
:10297C007A6B1A607B689B687B637B6B404A134065
:10298C007B633B685B697A6B13437B637B687A6B15
:10299C009A600C23FB181800FFF7BCFD7B68394AC2
:1029AC00934204D10C23FB189B69BB6315E07B6835
:1029BC00354A934204D10C23FB18DB69BB630CE052
:1029CC007B68324A934204D10C23FB181B6ABB630D
:1029DC0003E00C23FB189B68BB637B681A6880239D
:1029EC001B02134014D0BB6B5A003B681B681900C8
:1029FC001000FDF793FB0300FB63BB6B5A003B68B5
:102A0C001B6819001000FDF70FFC0B007B6310E036
:102A1C003B681B681900B86BFDF780FB0300FB6378
:102A2C003B681A68BB6B11001800FDF7FDFB0B002F
:102A3C007B633B681B685A087B6B9A4202D8FB6B22
:102A4C000133FB637B681A6880231B0213400AD096
:102A5C00FB6B5B08072213407B63FB6B0C4A1A4031
:102A6C007B6B1343FB63FB6B9AB27B689A81C0460A
:102A7C00BD4610B080BDC046FFCFFFFFF3E9FFFF9E
:102A8C00FFFCFFFF003801400044004000480040BC
:102A9C00F0FF000080B582B000AF78600A00FB1C2C
:102AAC001A70FB1C1B78002B06D07B681B6801225C
:102ABC001A437B681A6006E07B681B68012293430B
:102ACC001A007B681A60C046BD4602B080BD80B556
:102ADC0082B000AF78600A00BB1C1A80BB1C1B883C
:102AEC00DB05DB0D9AB27B681A85C046BD4602B089
:102AFC0080BD80B588B000AFF860B960FB1D1A705E
:102B0C000023BB6100237B6100233B610023FB613D
:102B1C00FB68FB61BB689BB21B0A9BB2BB61BB68C9
:102B2C00FF2213407B6101227B699A4013003B61B9
:102B3C00BB69022B03D1FB690433FB6105E0BB6964
:102B4C00032B02D1FB690833FB61FB1D1B78002BA7
:102B5C0006D0FB69FA6911683A690A431A6006E003
:102B6C00FB69FA6912683969C9430A401A60C046A0
:102B7C00BD4608B080BD80B584B000AF78603960C8
:102B8C000F23FB1800221A707B68DB693A6813402C
:102B9C0004D00F23FB1801221A7003E00F23FB183B
:102BAC0000221A700F23FB181B781800BD4604B0C6
:102BBC0080BD80B582B000AF786039607B683A68C0
:102BCC001A62C046BD4602B080BD80B586B000AF6B
:102BDC00786039600023FB6000237B610023BB60BD
:102BEC001323FB1800221A703B689BB21B0A9BB282
:102BFC00BB603B68FF2213407B6101227B699A40DA
:102C0C0013007B61BB68012B05D17B681A687B695B
:102C1C0013407B610DE0BB68022B05D17B685A68C1
:102C2C007B6913407B6104E07B689A687B69134085
:102C3C007B613B681B0CFB600122FB689A40130014
:102C4C00FB607B68DA69FB681340FB607B69002BD7
:102C5C0007D0FB68002B04D01323FB1801221A7039
:102C6C0003E01323FB1800221A701323FB181B78A4
:102C7C001800BD4606B080BD80B500AF04F0DEFA8A
:102C8C00C046BD4680BD80B582B000AF78607B6821
:102C9C00180004F00BFCC046BD4602B080BD80B5E8
:102CAC0082B000AF78607B68180004F025FCC04649
:102CBC00BD4602B080BD000080B500AF9023DB059F
:102CCC00002205211800FFF77CFB9023DB05002276
:102CDC0006211800FFF775FB9023DB050022072166
:102CEC001800FFF76EFB094BC12292001A80074BAC
:102CFC00B82252019A80054A044B1B889BB2402192
:102D0C000B439BB21380C046BD4680BD00300140D2
:102D1C0080B500AFC046074B1B899BB21A00C0237D
:102D2C005B011A40C0235B019A42F4D0C046BD46F9
:102D3C0080BDC0460030014080B500AFC046054B99
:102D4C001B899BB21A0001231340F8D0C046BD4624
:102D5C0080BDC0460030014090B585B000AF020088
:102D6C00FB1D1A70FFF7D4FFFB1D1B780C4A1900D2
:102D7C001000FFF7A1FD032003F074FBFFF7DCFF4D
:102D8C000F23FC18064B1800FFF7ACFD0300237053
:102D9C000F23FB181B781800BD4605B090BDC0462C
:102DAC000030014090B585B000AF04000800110060
:102DBC00FB1D221C1A70BB1D021C1A707B1D0A1CE9
:102DCC001A70C0461D4B1B899BB21A00C0235B01B5
:102DDC001340F7D1FB1D1B78184A19001000FFF7A0
:102DEC006BFDBB1D1B78154A19001000FFF764FD25
:102DFC007B1D1B78114A19001000FFF75DFDC046C2
:102E0C000E4B1B899BB21A0002231340F8D007E02B
:102E1C000F23FC18094B1800FFF764FD0300237007
:102E2C00064B1B899BB21A0001231340F0D10F23D0
:102E3C00FB181B781800BD4605B090BD0030014052
:102E4C00B0B584B000AF05000C0010001900FB1DDC
:102E5C002A1C1A70BB1D221C1A707B1D021C1A70B6
:102E6C003B1D0A1C1A700F23FB1800221A70C04657
:102E7C00234B1B899BB21A00C0235B011340F7D173
:102E8C00FB1D1B781E4A19001000FFF715FDBB1D1A
:102E9C001B781B4A19001000FFF70EFD7B1D1B78D9
:102EAC00174A19001000FFF707FD3B1D1B78144A49
:102EBC0019001000FFF700FDC046114B1B899BB297
:102ECC001A0002231340F8D00CE00D4B1800FFF74A
:102EDC0009FD030019000F23FB180F22BA181278F2
:102EEC008A181A70064B1B899BB21A0001231340D7
:102EFC00EBD10F23FB181B781800BD4604B0B0BDF6
:102F0C000030014080B500AF802319029023DB050F
:102F1C0000221800FFF729FAC046BD4680BD80B5D7
:102F2C0000AF802319029023DB0501221800FFF764
:102F3C001CFAC046BD4680BD90B583B000AFFFF70C
:102F4C00E1FFFC1D0022C0210520FFF72BFF030031
:102F5C00237005E0FC1D0020FFF7FEFE030023702C
:102F6C00FB1D1B7801221340F4D1FFF7D8FFFB1D8A
:102F7C001B783C221340DBB21800BD4603B090BD59
:102F8C0080B582B000AF1E2003F06CFA1E4B1B689C
:102F9C007B607A6880239B00134007D07B682022DB
:102FAC0013400AD17B688022134006D17A688023B3
:102FBC001B01134000D1E6E7C046144B00221A60F7
:102FCC00134B00221A60134A124B9B889BB20121AF
:102FDC008B439BB293800F4A0E4B9B889BB2022172
:102FEC008B439BB293807A6880239B00134005D05F
:102FFC007B688022134001D1012300E000231800DC
:10300C00BD4602B080BDC046000002401C0002401C
:10301C00300002400030014080B582B000AF7860D3
:10302C003960234B00221A60224B00221A60224B7B
:10303C00A0225A60204BA02212015A601C4B1F4A3E
:10304C009A601C4B1D4A9A60194B7A68DA60194BCE
:10305C007A68DA60164B3A685A60164B3A685A60CE
:10306C00134B842252011A60124B154A1A60104BF2
:10307C000F4A126801210A431A600E4B0D4A12685E
:10308C0001210A431A600F4A0E4B9B889BB2012107
:10309C000B439BB293800B4A0A4B9B889BB2022139
:1030AC000B439BB29380C046BD4602B080BDC04668
:1030BC001C00024030000240000002400C30014075
:1030CC00901000000030014080B582B000AF7860F5
:1030DC003960234B00221A60224B00221A60224BCB
:1030EC00A0225A60204BA02212015A601C4B1F4A8E
:1030FC009A601C4B1D4A9A60194B1D4ADA60194B99
:10310C007A68DA60164B3A685A60164B3A685A601D
:10311C00134B802252011A60124B164A1A60104B44
:10312C000F4A126801210A431A600E4B0D4A1268AD
:10313C0001210A431A60104A0F4B9B889BB2012154
:10314C000B439BB293800C4A0B4B9B889BB2022186
:10315C000B439BB29380C046BD4602B080BDC046B7
:10316C001C00024030000240000002400C300140C4
:10317C003C200020901000000030014080B584B04D
:10318C0000AF78600A00FB1C1A707B68DBB21B0175
:10319C00DAB20F23FB18703A1A70FFF7CDFEFFF767
:1031AC00B1FEFB1C1A780F23FB181B7819000120A9
:1031BC00FFF7F8FDFFF7B3FEC046BD4604B080BD77
:1031CC0090B587B000AF786039607B681A1217230E
:1031DC00FB181A701623FB187A681A703B683B614F
:1031EC00FFF7AAFEFFF78EFE1623FB18197817239C
:1031FC00FB181A780B0000211320FFF721FEFFF7B4
:10320C008EFE0F23FC18FFF797FE030023700F238D
:10321C00FB181B782022134001D0002311E0FFF78C
:10322C0071FE0023F82207210320FFF709FE3B69FA
:10323C0048211800FFF7F0FEFFF7A2FEFFF76FFE24
:10324C0001231800BD4607B090BD90B585B000AF06
:10325C0078607B681A120F23FB181A707B68DAB23D
:10326C000E23FB183F218A431A70FFF765FEFFF708
:10327C0049FE0620FFF770FDFFF751FEFFF75CFEDD
:10328C00FFF740FE0E23FB1819780F23FB181A7852
:10329C000B000021D820FFF7D3FDFFF740FE0D23D4
:1032AC00FC18FFF749FE030023700D23FB181B7855
:1032BC000C22134001D0002300E001231800BD466E
:1032CC0005B090BD90B587B000AF786039607B6871
:1032DC001A121723FB181A701623FB187A681A7027
:1032EC003B683B61FFF728FEFFF70CFE1623FB182B
:1032FC0019781723FB181A780B0000211320FFF7FD
:10330C009FFDFFF70CFE0F23FC18FFF715FE0300C3
:10331C0023700F23FB181B782022134001D00023AD
:10332C0013E0FFF7EFFD0023002200210320FFF73D
:10333C0087FD80231A013B6911001800FFF76CFE12
:10334C00FFF71EFEFFF7EBFD01231800BD4607B08B
:10335C0090BD000090B587B000AF78607B681A1202
:10336C001723FB181A701623FB187A681A702F4B48
:10337C003B61FFF7E1FDFFF7C5FD0620FFF7ECFC15
:10338C00FFF7CDFDFFF7D8FDFFF7BCFD00220021B4
:10339C000220FFF707FD84231A013B691100180076
:1033AC00FFF792FEFFF7ECFDFFF7B9FDFFF7C4FD49
:1033BC00FFF7A8FD1623FB1819781723FB181A78AA
:1033CC000B0000211020FFF73BFDFFF7A8FD0F239A
:1033DC00FC18FFF7B1FD030023700F23FB181B78BB
:1033EC000C22134001D000231CE00F23FC18104AC0
:1033FC007B6811001800FFF765FF030023700F2393
:10340C00FB181B78002B01D100230BE080231A0141
:10341C000749064B180004F0F3FB031E01D00023F0
:10342C0000E001231800BD4607B090BDC05100203C
:10343C004020002080B584B000AF78600E23FB18CC
:10344C00012252421A807B681A4A934201D100230E
:10345C002CE0194A7B6811001800FFF7B1FE031E1F
:10346C001DD0154B1B890E22BA1812889A4216D100
:10347C00114B1B8B0E22BA1812889A420FD10E4B8D
:10348C001B8D0E22BA1812889A4208D10A4B1B8F38
:10349C000E22BA1812889A4201D1012306E07A68EA
:1034AC00064B1100180004F053F800231800BD4619
:1034BC0004B080BD80FF000080280020D09A000856
:1034CC0080B582B000AF58210220FFF757FEFFF7FE
:1034DC0033FDFFF717FD0023002200211320FFF717
:1034EC00AFFCFFF71CFDFFF727FDFFF70BFD0023DB
:1034FC00002200210320FFF7A3FC154B202118000C
:10350C00FFF78AFDFFF73CFDFFF709FD18210220AC
:10351C00FFF734FE0F4B01229A6000237B6008E01A
:10352C000C4B0B4A796889008A581A607B68013306
:10353C007B607B68072BF3DD064B1A68044B1A6023
:10354C00044B01229A60C046BD4602B080BDC04605
:10355C001C2000200030024080B582B000AFFB1D63
:10356C0000221A70484B1B685A1C474B1A60464B7A
:10357C001A6880235B029A4202D1434B00221A60E4
:10358C00414B1A68414B1100180003F0E1FF002376
:10359C003B606AE03C4B1B681800FFF74BFF031EB7
:1035AC0037D03B4B5B68013307D1374B1A68394B2B
:1035BC001100180003F0CCFF5BE0334B1968344B5F
:1035CC005A68354B180003F0C3FF2F4B1B683F2282
:1035DC0013401ED1FB1D1B78002B1AD12A4B1A68E5
:1035EC002E4B1100180003F0B3FF00210120FFF750
:1035FC00C5FD254B1B681800FFF727FE7C21012019
:10360C00FFF7BCFDFB1D01221A703B68013B3B60C0
:10361C0028E0FB1D00221A701B4B1B685A1C1A4B0E
:10362C001A60194B1B681E4A934214D91D4B180083
:10363C0003F08EFF144B00221A6000210120FFF7CB
:10364C009DFD0020FFF701FE7C210120FFF796FD78
:10365C00FB1D01221A700C4B1A68134B1100180039
:10366C0003F076FF3B6801333B603B680C4A9342A6
:10367C0090DD054B1A680D4B1100180003F068FF24
:10368C00C046BD4602B080BD14200020F49A00084C
:10369C0080280020209B0008389B0008589B0008BD
:1036AC00FFFF0000709B0008909B0008C49B000863
:1036BC0080B586B000AF00233B610023FB60554A08
:1036CC0085231B010121D154534B00221A60534B0B
:1036DC0001221A6000237B6117E07B691800FFF759
:1036EC00A9FE031E0BD04E4B5B68013309D04C4B2B
:1036FC005A684A4B1A60484B7A691A6009E0C0460E
:10370C0000E0C0467B6901337B617B69454A93428B
:10371C00E3D97A6980235B029A4207D13E4B1A683F
:10372C00414B1100180003F013FF6FE07B69013B64
:10373C007B6152E07B691800FFF77CFE031E4CD0C6
:10374C00374B5B68BB60BB68013300D145E0344B41
:10375C00DB78FF2B33D12F4A85231B01D35C002B45
:10376C0012D0BB683B61BB68FB602A4B2F497A695E
:10377C005A50284A84231B017969D150254A852344
:10378C001B010021D1541AE0BA683B69D31A7B6043
:10379C007B68002B06DABB683B611E4A84231B0145
:1037AC007969D150BA68FB68D31A7B607B68002BAF
:1037BC0005DDBB68FB60174B1C497A695A50174BE7
:1037CC001B68BA68D31A7B607B68002B05DD134B32
:1037DC00BA681A60104B7A691A607B6901337B6195
:1037EC007B69104A9342A5D9FFF7B6FE0B4B1B68B9
:1037FC005A1C0A4B1A60094B1B68013302D1074B48
:10380C0001221A600A4B180003F0A2FEBD4606B056
:10381C0080BDC046644900201420002018200020E0
:10382C0080280020FFFF0000FC9B000848080000D7
:10383C00209C000890B587B000AF78607B681A12A6
:10384C001723FB181A701623FB187A681A70FFF7E7
:10385C0073FBFFF757FB1623FB1819781723FB187C
:10386C001A780B0000211320FFF7EAFAFFF757FB39
:10387C00FFF762FBFFF746FB0620FFF76DFAFFF739
:10388C004EFB274B3B613B691B12DAB20F23FB1833
:10389C000F210A401A700E23FB183A691A70FFF7B1
:1038AC004BFBFFF72FFB0E23FB181A780F23FB188B
:1038BC00197800238420FFF7C3FAFFF730FBFFF7DA
:1038CC003BFBFFF71FFB1623FB1819781723FB187C
:1038DC001A780B0000211020FFF7B2FAFFF71FFB3C
:1038EC000E23FC18FFF728FB030023700E23FB1894
:1038FC001B780C22134007D07A680A4B1100180071
:10390C0003F026FE002306E07A68074B110018002E
:10391C0003F01EFE01231800BD4607B090BDC04643
:10392C00FB0700004C9C0008789C000880B584B014
:10393C0000AF78607A68244B1100180003F008FE81
:10394C007B681A120F23FB181A700E23FB187A6867
:10395C001A701E4BBB60BB6840220021180004F09B
:10396C0067F9FFF7E9FAFFF7CDFA0620FFF7F4F94C
:10397C00FFF7D5FAFFF7E0FAFFF7C4FA00220821A7
:10398C000220FFF70FFABB6840211800FFF79CFBE1
:10399C00FFF7F6FAFFF7C3FAFFF7CEFAFFF7B2FA22
:1039AC000E23FB1819780F23FB181A780B00002133
:1039BC001020FFF745FAFFF7B2FAFFF7BDFAC04641
:1039CC00BD4604B080BDC046989C000880280020ED
:1039DC0080B582B000AF3C4B19683C4B1A683C4B2D
:1039EC00180003F0B5FD394B1A683A4B3A495A5056
:1039FC00364B1B685A1C354B1A60344B1B68013311
:103A0C0002D1324B01221A60344A85231B01D35C4C
:103A1C00002B11D02C4B1A68314B1100180003F0FD
:103A2C0097FD294B19682D4A84231B01D1502B4A31
:103A3C0085231B010021D15400210120FFF79EFB9F
:103A4C0000237B6017E0204B1B681800FFF782FCFB
:103A5C00031E14D11C4B1A68224B1100180003F0E2
:103A6C0077FD194B1B681800FFF760FFFFF774FD1B
:103A7C007B6801337B607B68182BE4DD00E0C0467B
:103A8C007C210120FFF77AFB0F4B1A68134B164968
:103A9C005A507B68182B01DCFFF75EFD0A4B1A6845
:103AAC00104B1100180003F053FD84231A01094B2D
:103ABC00FF21180004F0BCF80C4B00221A60C04621
:103ACC00BD4602B080BDC046142000201820002046
:103ADC00B49C0008C0510020FC0700006449002081
:103AEC00E09C0008149D000848080000B851002014
:103AFC0090B583B000AF80235B00180000F094F900
:103B0C00324B186801235A4200230021FDF715F9A6
:103B1C002F4B304A002199502D4A84231B01D25837
:103B2C002B4B2D495A50FB1D2949852212018A5CC9
:103B3C001A70274A84231B01D258284B11001800F5
:103B4C0003F006FD28E0224B234A9B581A00FC1D6B
:103B5C001F4B19001000FFF7B5FB03002370FB1D72
:103B6C001B78002B18D11A4B1B4A9A581C4B11006E
:103B7C00180003F0EDFC164B174A9A58144B1949D0
:103B8C005B589A420DD0124B134A9B5801331B04BD
:103B9C001A0C0F4B10495A50FB1D1B78002BD2D01E
:103BAC0000E0C046FB1D1B78002B04D1084A85237E
:103BBC001B010121D154054B186800230022002160
:103BCC00FCF7D6FFC046BD4603B090BDBC510020EB
:103BDC00644900204C080000440800003C9D00088B
:103BEC006C9D00084808000090B585B000AF786067
:103BFC005C4A85231B01D35C002B02D001235B4262
:103C0C00ABE0594B186801235A4200230021FDF701
:103C1C0094F8544B554A9B58A92B20D8514B534AD6
:103C2C009A5878684F4913005B009B189B00020060
:103C3C00CB1813CB13C27B681B6801330FD0494BD5
:103C4C004A4A9B585A1C474B48495A50464B18688D
:103C5C00002300220021FCF78BFF00237DE0414B69
:103C6C00424A9A58424B1100180003F071FC3D4B2C
:103C7C00404A9A583B4B40495B589A4216D1394BB3
:103C8C003C4A9A583D4B1100180003F061FC354A30
:103C9C0085231B010121D154334B186800230022CA
:103CAC000021FCF765FF01235B4256E02D4B314AA6
:103CBC009B5801331B041A0C2A4B2E495A50294B82
:103CCC002A4A002199500F23FB1800221A703EE05B
:103CDC00244B284A9B581A000F23FC18214B19001F
:103CEC001000FFF7EFFA030023700F23FB181B786B
:103CFC00002B04D01B4B224A9B5CFF2B27D0194B6B
:103D0C001C4A9A581F4B1100180003F021FC154B4C
:103D1C00184A9A58134B18495B589A420ED1114ABB
:103D2C0085231B010121D1540F4B1868002300225D
:103D3C000021FCF71DFF01235B420EE0094B0D4AED
:103D4C009B5801331B041A0C064B0A495A500F237B
:103D5C00FB181B78002BBBD05BE71800BD4605B0E9
:103D6C0090BDC04664490020BC5100204C080000A6
:103D7C009C9D00084408000048080000E09D0008D5
:103D8C00FB070000189E000880B500AF214B186897
:103D9C0001235A4200230021FCF7CFFF0021012010
:103DAC00FFF7ECF91C4B180003F0D2FB0FE01B4A99
:103DBC0084231B01D3581800FFF73CFD174A8423BA
:103DCC001B01D358591C154A84231B01D150134A8B
:103DDC0084231B01D258114B11495B589A42E6D3EC
:103DEC000E4A85231B01D35C012B05D10B4B0D4ACD
:103DFC009B581800FFF71EFD7C210120FFF7BEF930
:103E0C00044B1868002300220021FCF7B1FEC046C9
:103E1C00BD4680BDBC510020449E00086449002072
:103E2C00440800004808000090B589B002AF7860E3
:103E3C00334B186801235A4200230021FCF77DFF05
:103E4C00304B1A68304B1A60304B1A680C23FB1835
:103E5C001A602F4B1B689AB20C23FB189A802D4BBF
:103E6C001B689AB20C23FB18DA800C23FB189B8876
:103E7C001A00294B1A600C23FB18DB881A00274BFD
:103E8C001A607B689AB20C23FB181A81244B1A68AF
:103E9C00244913005B009B189B000C22BA18CB180A
:103EAC0013CA13C31E4B1B685A1C1D4B1A601C4BA8
:103EBC001B68A92B04DC7A6880235B009A4201D131
:103ECC00FFF786FD0E4B1868002300220021FCF73B
:103EDC004FFE0C23FB1819680C23FB189B881A0047
:103EEC000C23FB18DB881C000C23FB181B890E48C9
:103EFC000093230003F02CFBC046BD4607B090BDD9
:103F0C00BC510020685A0020045A0020205A00207E
:103F1C003C5A00204C5A0020605A0020445A002081
:103F2C00B8510020C0510020809E000880B582B09E
:103F3C0000AF2B4B3B6000237B600AE03B685A1CB4
:103F4C003A607A68D2B20132D2B21A707B6801330D
:103F5C007B607B68234A9342F0DD234B234A190094
:103F6C001000FFF7AFF9031E08D080231A011E4979
:103F7C001B4B180003F044FE031E2CD00021012023
:103F8C00FFF7FCF8194B1800FFF75FF9144A802370
:103F9C001B010021D152124A81231B010021D15255
:103FAC000F4A82231B010021D1520D4A83231B018E
:103FBC000021D1520D4B1800FFF7CCF9031E05D18F
:103FCC000B4B1B6804221A43094B1A607C210120FD
:103FDC00FFF7D4F800E0C046BD4602B080BDC04635
:103FEC00C0510020FF0700004020002080FF00008F
:103FFC00145A002080B500AFFEF75EFEFEF79CFF62
:10400C00FEF780FFFF20FEF7A7FEFEF788FFFFF705
:10401C0057FAFFF78BFF84231A010B4BFF21180073
:10402C0003F006FE094B00221A60094A85231B0186
:10403C000121D1540120FCF756FD0200054B1A60FA
:10404C00C046BD4680BDC046C0510020B8510020BE
:10405C0064490020BC51002080B582B000AF78606C
:10406C007B689BB2044800221900FEF77EF9C0461B
:10407C00BD4602B080BDC0460004004880B582B089
:10408C0000AF78607B689BB2044801221900FEF7F0
:10409C006CF9C046BD4602B080BDC0460004004865
:1040AC0080B500AF03F026FBC046BD4680BD80B591
:1040BC0000AF012001F0A8FF012001F08FFF0320C9
:1040CC0002F0D0F9002001F09FFF032002F0CAF9A2
:1040DC00002001F083FF052002F0C4F9C046BD4664
:1040EC0080BD80B500AF002001F08EFF032002F0F0
:1040FC00B9F9012001F072FF032002F0B3F901209D
:10410C0001F082FF052002F0ADF9C046BD4680BD2E
:10411C0080B500AF002001F077FF012001F05EFFB9
:10412C00032002F09FF9002001F058FF012001F05C
:10413C006BFFC046BD4680BD80B500AF012001F0CD
:10414C0063FF032002F08EF9012001F047FF0320EA
:10415C0002F088F9002001F041FFC046BD4680BD49
:10416C0080B584B000AF78600023FB6019E07B68F9
:10417C008022134003D0012001F046FF02E0002012
:10418C0001F042FF7B685B007B60012001F026FFA1
:10419C00032002F067F9002001F020FFFB680133D7
:1041AC00FB60FB68072BE2DD012001F02DFF0320F3
:1041BC0002F058F9012001F011FF052002F052F92C
:1041CC000B23FB1801221A709023DB051B8A9BB270
:1041DC001A008023DB00134003D00B23FB180022B2
:1041EC001A70002001F0FAFE0B23FB181B78180044
:1041FC00BD4604B080BD80B582B000AF08237B60A3
:10420C0000233B6017E03B685B003B609023DB05C1
:10421C001B8A9BB21A008023DB00134002D03B6840
:10422C0001333B60012001F0D9FE032002F01AF9A2
:10423C00002001F0D3FE7B68013B7B607B68002B88
:10424C00E1DA3B681800BD4602B080BD90B587B07E
:10425C0000AF786029237B61374B1B78002B02D091
:10426C007B69013B7B61FFF722FF7B691322BC1842
:10427C001800FFF775FF030023701323FB181B783E
:10428C00002B03D1FFF72DFF002351E02A4B1B78A5
:10429C00002B20D0284B00221A701323FC1801206D
:1042AC00FFF75EFF03002370FFF701FF2920FFF7E4
:1042BC0057FF030019001323FB181322BA181278A6
:1042CC000A401A701323FB181B78002B03D1FFF73D
:1042DC0008FF00232CE0FFF78EFF0300FB60FFF7C5
:1042EC0017FFFFF788FF0300BB60FFF725FFFFF701
:1042FC00F8FEFB68FF2213407B617B691B027B612C
:10430C00BB68FF2213407A69D3187B617B687A699A
:10431C001A600A4B1A007B699A4201D8002307E005
:10432C00074B1A007B699A4201D3002300E001235A
:10433C001800BD4607B090BD085A0020C8C5000043
:10434C003306000080B586B000AF344B1B68002BE1
:10435C000ADD334B1A68314B1B6819001000FBF750
:10436C0067FF03007B6102E02E4B1B687B612D4BCA
:10437C007A691A602A4B00221A60284B00221A60B4
:10438C007B699BB2284A934201D3002342E001236C
:10439C003B610AE0254B3A695200D35A1A007B69FB
:1043AC009A4206DD3B6901333B613B698B2BF1DDA6
:1043BC0000E0C0463B698B2B01DD8B232AE03B6977
:1043CC005A1E1A4B5200D35AFB60184B3A695200D2
:1043DC00D35A1A00FB689B1ABB603B695A1E130028
:1043EC009B009B185B007B60FA687B69D21A1300F8
:1043FC009B009B185B001A00BB685B10D318B96854
:10440C001800FBF715FF03003B617A683B69D31872
:10441C007B607B681800BD4606B080BDCC280020B0
:10442C00C8280020D0280020C8C50000A8A7000874
:10443C0080B582B000AF0D4B00221A703B1D1800E6
:10444C00FFF704FF031E0CD0094B1B681A007B6896
:10445C00D3181A00064B1A60064B1B685A1C054BE6
:10446C001A60C046BD4602B080BDC046345A00201A
:10447C00C8280020CC28002080B582B000AFFFF700
:10448C0030FE144B00221A60134B00221A60134B9F
:10449C0000221A603B1D1800FFF7D8FE104B1800C5
:1044AC0001F0E0FF3B1D1800FFF7D0FE0C4B18008D
:1044BC0001F0D8FF3B1D1800FFF7C8FE031E05D105
:1044CC00084B1B6801221A43064B1A60C046BD46B6
:1044DC0002B080BDCC280020C8280020D0280020A5
:1044EC00A0860100145A002080B500AF012001F015
:1044FC00B7FD012001F09EFD032001F0B3FF002069
:10450C0001F0AEFD032001F0ADFF002001F092FDA3
:10451C00052001F0A7FFC046BD4680BD80B500AFA9
:10452C00002001F09DFD032001F09CFF012001F013
:10453C0081FD032001F096FF012001F091FD052083
:10454C0001F090FFC046BD4680BD80B500AF002095
:10455C0001F086FD012001F06DFD032001F082FFCA
:10456C00002001F067FD012001F07AFDC046BD4638
:10457C0080BD80B500AF012001F072FD032001F079
:10458C0071FF012001F056FD032001F06BFF0020AC
:10459C0001F050FDC046BD4680BD80B584B000AF73
:1045AC0078600023FB6019E07B688022134003D005
:1045BC00012001F055FD02E0002001F051FD7B6867
:1045CC005B007B60012001F035FD032001F04AFF08
:1045DC00002001F02FFDFB680133FB60FB68072B0B
:1045EC00E2DD012001F03CFD032001F03BFF012046
:1045FC0001F020FD052001F035FF0B23FB180122F3
:10460C001A709023DB051B8A9BB21A0080235B0176
:10461C00134003D00B23FB1800221A70002001F06A
:10462C0009FD0B23FB181B781800BD4604B080BD98
:10463C0080B582B000AF08237B6000233B6017E09D
:10464C003B685B003B609023DB051B8A9BB21A0026
:10465C0080235B01134002D03B6801333B60012097
:10466C0001F0E8FC032001F0FDFE002001F0E2FC6B
:10467C007B68013B7B607B68002BE1DA3B681800B0
:10468C00BD4602B080BD000090B587B000AF786029
:10469C0029237B61384B1B78002B02D07B69013BB3
:1046AC007B61FFF721FF1323FC187B691800FFF7D0
:1046BC0074FF030023701323FB181B78002B03D10A
:1046CC00FFF72CFF002353E02B4B1B78002B20D043
:1046DC00294B00221A701323FC180120FFF75DFFF1
:1046EC0003002370FFF700FF2920FFF756FF03009C
:1046FC0019001323FB181322BA1812780A401A70E7
:10470C001323FB181B78002B03D1FFF707FF0023A3
:10471C002EE0FFF78DFF0300FB60FFF716FFFFF79E
:10472C0087FF0300BB60FFF724FFFFF7F7FEFB6872
:10473C00FF221A407B681A607B681B681A027B6830
:10474C001A607B681A68BB68FF210B40D2187B6823
:10475C001A607B681B68002B04D07B681B68074AB7
:10476C00934204D17B6800221A60002300E00123ED
:10477C001800BD4607B090BD185A0020FFFF00007E
:10478C0080B582B000AF78607B68034A53435B13FB
:10479C001800BD4602B080BDFA20000080B584B080
:1047AC0000AF78607B68FB60FB685B030449180012
:1047BC00FBF73EFD03001800BD4604B080BDC046AB
:1047CC00FA20000080B582B000AF134B1B68002BA1
:1047DC000AD0124B1A68104B1B6819001000FBF71B
:1047EC009DFC03007B6002E00D4B1B687B607A68CC
:1047FC000B4B1A60094B00221A60074B00221A60FF
:10480C007B681800FFF7BCFF03007B607B68180017
:10481C00BD4602B080BDC046D8280020D428002058
:10482C00DC28002080B582B000AF3B1D1800FFF7DC
:10483C002BFF031E14D07A680D4B1B689A420FD2C3
:10484C007A680C4B1B689A420AD90B4B1A687B6826
:10485C00D218094B1A60094B1B685A1C074B1A607B
:10486C00074B00221A70C046BD4602B080BDC04640
:10487C00E0280020E4280020D4280020D82800209C
:10488C001A5A002080B582B000AFFFF747FE354BB7
:10489C0000221A60344B00221A60344B00221A603A
:1048AC003B001800FFF7F0FE314B180001F0DAFD69
:1048BC003B001800FFF7E8FE2D4B180001F0D2FD6D
:1048CC0000233B603B001800FFF7DEFE3B6818003E
:1048DC00FFF756FF03003B603B68264A934205D81E
:1048EC00254B1B6802221A43234B1A603B68234A50
:1048FC00934205D9204B1B6802221A431E4B1A60A7
:10490C003B681F4A934203D81E4B01221A6012E0E7
:10491C003B681D4A934203D81A4B02221A600AE0E4
:10492C003B681A4A934203D8164B03221A6002E0E2
:10493C00144B04221A60134B1B68154A534318007E
:10494C00FFF72CFF03007B607B685A08114B1A6041
:10495C00104B1A687B68D2180F4B1A60C046BD46C4
:10496C0002B080BDD8280020D4280020DC280020EC
:10497C00A0860100131E0000145A0020E8FD000060
:10498C007F3E0000285A00202F750000C7AF0000A2
:10499C0038310000E4280020E028002080B584B0E5
:1049AC0000AF786039603B681800FBF7AFFB030081
:1049BC00FB607B68002B09D0FA6839687B681800AB
:1049CC0003F003FC031E01D1012300E00023BB60B4
:1049DC00BB68002B01D0FB6800E000231800BD462B
:1049EC0004B080BD80B584B000AF786039603A689F
:1049FC007B681100180003F00EFC0300FB60FB68E1
:104A0C00002B07D03B681800FBF780FB0200FB680B
:104A1C009B1800E000231800BD4604B080BD0000C8
:104A2C0080B584B000AF78607B681B78412B25D1B2
:104A3C007B6801331B78542B20D10023FB6017E0DB
:104A4C007B68981C104BFA68D200D3581900FFF7FA
:104A5C00A5FF031E09DD0C4AFB68DB00D3180433E9
:104A6C001B68FA22920053430AE0FB680133FB6097
:104A7C00054BFA68D200D358002BE1D1034B1B68CD
:104A8C001800BD4604B080BD3C000020380000205A
:104A9C0080B584B000AF786039607B681800FBF794
:104AAC0035FB0300FB603B681800FBF72FFB030092
:104ABC00BB60FA68BB689A420EDBFA68BB68D31A13
:104ACC001A007B689B183A6811001800FBF714FB5E
:104ADC00031E01D1012300E000231800BD4604B0E1
:104AEC0080BD80B584B000AF78600023FB6009E026
:104AFC00FB687A68D3181B78180002F019FFFB6862
:104B0C000133FB60FB687A68D3181B78002BEFD15C
:104B1C00C046BD4604B080BD80B588B000AFF8601B
:104B2C00B9607A603B60BA68FB681100180003F04A
:104B3C0072FB0300FB61BB681800FBF7E7FA03008C
:104B4C00BB617B68002B02D07B683A681A60BB6A39
:104B5C00002B02D0BB6AFA6A1A60FB69002B2BD0BF
:104B6C00BB69FA69D3183B613B691022B918002262
:104B7C00180003F0FFFB03007B617B68002B02D065
:104B8C007B687A691A603B691B782C2B14D13B69C2
:104B9C0001333B613B69002B0ED03B691022B918E5
:104BAC000022180003F0E6FB03007B61BB6A002BBC
:104BBC0002D0BB6A7A691A60C046BD4608B080BD97
:104BCC0080B58CB000AFF860B9607A603B600B23A5
:104BDC00BB610A237B617B68FB620023BB62002301
:104BEC007B6200233B62FB6800221A7085E0FB6A43
:104BFC00180002F0BDFE03003B613B69002B06DA96
:104C0C003B6A002B00D07FE001235B4282E03B6AD1
:104C1C005A1C3A621A00FB689B183A69D2B21A7095
:104C2C003B6AFA68D31800221A703B68002B19D023
:104C3C003A4AFB6811001800FFF72AFF031E00D048
:104C4C0064E0374AFB6811001800FFF721FF031ED0
:104C5C005ED1344AFB6811001800FFF719FF031EE0
:104C6C0040D056E03A6ABB699A420BD12E4AFB6897
:104C7C0011001800FBF740FA03005A425341DBB213
:104C8C00BB622FE03A6ABB699A422BDDBB6A002BF0
:104C9C0028D07B6A002B25D13B690A2B22D1FB68DB
:104CAC002C21180003F083FA0300FB61FB69002B35
:104CBC0013D0FB6901332C21180003F078FA0300A0
:104CCC00FB61FB69002B08D0FB6901330A22002130
:104CDC00180003F04FFB03007B62FB69002B01D132
:104CEC000023BB627B6A002B05D07A6913009B0002
:104CFC009B18FB6201E07B69FB62BB685A1E3B6A36
:104D0C009A4200DD73E704E0C04602E0C04600E0D2
:104D1C00C0463B6A1800BD460CB080BDF09E000832
:104D2C00F89E0008009F0008C0A8000890B585B048
:104D3C0000AFF860B9607A603B603C687A688023A9
:104D4C00D9001C48230003F08BFD1A4B1A4A002192
:104D5C009954B968F86800230122FFF731FFFB680A
:104D6C001B78002B05D0FA68144B1100180000F0CA
:104D7C007FFD104A124B1100180000F079FD0D4B0D
:104D8C001800FFF7AEFEFB68002B0FD0094B180084
:104D9C00FFF746FE0200B968F8680123FFF710FF21
:104DAC00FA68084B1100180000F062FDC046BD46C1
:104DBC0005B090BDE8280020FF030000049F000808
:104DCC00189F0008209F00080CB480B584B000AF79
:104DDC00786039601C23FB18FB60FB68BA69396882
:104DEC007868FFF7A3FFC046BD4604B080BC08BC82
:104DFC0002B018470FB480B582B000AF1423FB1873
:104E0C007B607B683A6900210020FFF78FFFC0466A
:104E1C00BD4602B080BC08BC04B0184780B58EB04B
:104E2C0000AF32237B630D4A796B3B001800FFF710
:104E3C00CBFF0B4A796B3B001800FFF7C5FF094B02
:104E4C001800FCF729FA084A796B3B001800FFF7A9
:104E5C00BBFFC046BD460EB080BDC046289F0008B3
:104E6C00389F000888130000449F000890B587B055
:104E7C0002AF78603960684B180000F0D7FC674AC5
:104E8C0039687B681800FFF79FFF654A39687B68B3
:104E9C001800FFF799FF634A39687B681800FFF721
:104EAC0093FF614B180000F0C1FC604A39687B68C5
:104EBC001800FFF789FF5E4A39687B681800FFF716
:104ECC0083FF5C4A39687B681800FFF77DFF5A4BFB
:104EDC00180000F0ABFC514A39687B681800FFF7EA
:104EEC0073FF564A39687B681800FFF76DFFFA2389
:104EFC00DB001800FCF7D0F9514A39687B681800C0
:104F0C00FFF762FF4F4B180000F090FC4E4A3968D7
:104F1C007B681800FFF758FF01235C420C23FA183A
:104F2C004A49786801235B4201930823FB180093DC
:104F3C002300FFF7F1FDBB68012B02D0052B05D038
:104F4C0009E0434B180000F071FC09E0414B1800DC
:104F5C0000F06CFC04E0404B180000F067FCC0460D
:104F6C003E4B180000F062FC3D4A39687B68180023
:104F7C00FFF72AFF3B4B180000F058FC3A4A3968FF
:104F8C007B681800FFF720FF384B180000F04EFC30
:104F9C00374B180000F04AFC364B180000F046FC6A
:104FAC00354B180000F042FC344B180000F03EFC6E
:104FBC00334B180000F03AFC324A39687B68180011
:104FCC00FFF702FF304B180000F030FC2F4A396815
:104FDC007B681800FFF7F8FE2D4A39687B681800CB
:104FEC00FFF7F2FE2B4B2C4A39687868FFF7ECFE82
:104FFC002A4A39687B681800FFF7E6FE284A3968A8
:10500C007B681800FFF7E0FE264B180000F00EFC42
:10501C00C046BD4605B090BD509F0008649F000877
:10502C00689F0008749F00087C9F0008909F0008F0
:10503C009C9F0008A89F0008B49F0008C89F000808
:10504C00D49F0008E09F000800A000080CA00008F6
:10505C0014A0000830A000084CA0000860A00008B4
:10506C007CA0000888A000089CA00008A8A000084C
:10507C00B8A00008D0A00008E0A00008FCA0000820
:10508C0018A100083CA1000844A10008289F0008B2
:10509C0070A100081800002090A10008ACA1000825
:1050AC00BCA10008CCA1000880B58CB000AF786022
:1050BC000C23FB1824220021180002F0B9FD7B6898
:1050CC00391D0A22180003F055F90300374A9A18C3
:1050DC000C23FB185A617B687A6812782F3A51427C
:1050EC004A41D2B29B187B607B68391D0A2218009A
:1050FC0003F040F903005A1E0C23FB181A617B685D
:10510C007A6812782F3A51424A41D2B29B187B608E
:10511C007B68391D0A22180003F02CF902000C23BD
:10512C00FB18DA607B687A6812782C3A51424A4153
:10513C00D2B29B187B607B68391D0A22180003F0E1
:10514C0019F902000C23FB189A607B687A681278B4
:10515C003A3A51424A41D2B29B187B607B68391D66
:10516C000A22180003F006F902000C23FB185A60FF
:10517C007B687A6812783A3A51424A41D2B29B180B
:10518C007B607B68391D0A22180003F0F3F80200DB
:10519C000C23FB181A600C23FB18180002F01CFEE1
:1051AC0003001800BD460CB080BDC04694F8FFFF4C
:1051BC0080B500AF044B1A68044B11001800FFF7C0
:1051CC0055FEC046BD4680BD84000020E82C002062
:1051DC0080B588B000AFF860B9607A603B60BA689F
:1051EC00FB6811001800FFF7FDFB03003B617B68B7
:1051FC0000221A70BB6A00221A603B69002B52D045
:10520C003B691022B9180A22180003F0B3F8030006
:10521C00BB61BB69002B46D13B693A6912782C3AC9
:10522C0051424A41D2B29B183B613B692C21180078
:10523C0002F0BDFF03007B617B69002B33D07B69DF
:10524C0001332C21180002F0B2FF03007B617B6953
:10525C00002B28D07B693A699B1AFB613B685A1E6C
:10526C00FB699A4202DA3B68013BFB613969FA69D6
:10527C007B68180002F0BAFFFB697A68D318002229
:10528C001A707B693B613B697A6912782C3A5142FE
:10529C004A41D2B29B183B613B691800FFF704FFEF
:1052AC000200BB6A1A6001235B421800BD4608B0BD
:1052BC0080BD80B586B000AFF860B9607A60BB681D
:1052CC00002B04D1002348E07B6801337B6002F0A3
:1052DC0077FC02007B681B780133D3181B781A000B
:1052EC0008231340F0D17B681B78002B04D1FB689A
:1052FC0000221A70012330E07B687B6102E07B693D
:10530C0001337B6102F05CFC02007B691B7801338A
:10531C00D3181B781A000823134007D17A697B68CD
:10532C00D31A1A00BB68013B9A42E8D3BB68591EDA
:10533C007A697B68D31A1A000B00934200D91300C8
:10534C003B613A697968FB68180002F068FCFA68FE
:10535C003B69D31800221A703B691800BD4606B091
:10536C0080BD000080B582B000AF786039600C4B16
:10537C0019680C4800230122FFF722FC084B19681E
:10538C00094A084B1800FFF71FFD3968074A7B686C
:10539C001800FFF78EFF03001800BD4602B080BD59
:1053AC0088000020B0320020ECA10008B9320020A7
:1053BC0080B582B000AF78607968064B2022180067
:1053CC0002F014FF034B0022DA77C046BD4602B050
:1053DC0080BDC0461800002090B589B002AFF860BF
:1053EC00B9607A607B6800221A6000237B611CE044
:1053FC00FA23DB001800FBF74FFF114B1968114A19
:10540C00114B1800FFF7E0FCBC68FA680F490E4816
:10541C007B6800932300FFF7DBFEFA23DB00180008
:10542C00FBF73AFF7B6901337B617B69042B03DC5F
:10543C007B681B68002BDBD0C046BD4607B090BD17
:10544C008C000020F8A10008783800200CA200087D
:10545C0090B587B000AFF860B9607A6000237B61CB
:10546C004D4B180000F0E2F94C4B19684C4A4D4B6F
:10547C001800FFF7A9FC494B19684B4A494B180017
:10548C00FFF7A2FC454B1968484A464B1800FFF73A
:10549C009BFC474B180000F0C9F9404B1968454A72
:1054AC00404B1800FFF790FC3C4B1968FB68424AD4
:1054BC003C48FFF789FC394B1968BB683F4A3948AF
:1054CC00FFF782FC354B19683D4A364B1800FFF745
:1054DC007BFC324B1C687B681800FAF717FE030044
:1054EC00384A30482100FFF76FFC7A68364B1100C0
:1054FC001800FFF77FFC294B1968344A2948002310
:10550C00FFF75EFB03003B61264A314B110018008C
:10551C0000F0AEF9214B19682E4A224B1800FFF708
:10552C0053FC1E4B1968294A1E480023FFF748FB01
:10553C0003003B611B4A264B1100180000F098F940
:10554C00254A184B1100180002F065FE031E01D00D
:10555C0001237B61114B1968204A124B1800FFF78D
:10556C0033FC0E4B1968194A0E480023FFF728FB31
:10557C0003003B610B4A164B1100180000F078F940
:10558C00064B1968064A074B1800FFF71DFC7B6990
:10559C001800BD4607B090BD18A20008900000206E
:1055AC0028A20008403E002038A2000848A20008AB
:1055BC0058A2000864A200087CA2000894A200086B
:1055CC00C0A20008ECA2000804A30008204E0000B2
:1055DC0008A3000810A3000824A3000828A30008AF
:1055EC0090B597B002AF3223BB64764B180000F035
:1055FC001DF9754AB96C1423FB181800FFF7E4FB6E
:10560C00714AB96C1423FB181800FFF7DDFB6F4AC5
:10561C00B96C1423FB181800FFF7D6FB6A4AB96C57
:10562C001423FB181800FFF7CFFB694B180000F090
:10563C00FDF8684AB96C1423FB181800FFF7C4FB7B
:10564C0001235C420823FA1863491423F818012338
:10565C005B4201933B1D00932300FFF75DFA2BE0A7
:10566C005E4AB96C1423FB181800FFF7ADFB5C4BBA
:10567C001800FBF711FE5B4AB96C1423FB181800D9
:10568C00FFF7A2FB564B1800FBF706FE514AB96C0C
:10569C001423FB181800FFF797FB01235C42082327
:1056AC00FA184D491423F81801235B4201933B1D52
:1056BC0000932300FFF730FABB68012BD0D10023F5
:1056CC00FB6443E0484B1800FBF7E6FD474B180022
:1056DC0000F0ACF8464AB96C1423FB181800FFF71D
:1056EC0073FBFB6C591C434B0A22180000F09EF80C
:1056FC00414AB96C1423FB181800FFF765FB012312
:10570C005C420C23FA183D491423F81801235B4220
:10571C0001931023FB1800932300FFF7FDF93B695D
:10572C00012B04D1364B180000F080F811E03B69D6
:10573C00052B04D1334B180000F078F809E0324BFC
:10574C00180000F073F8FB6C0133FB64FB6C092B45
:10575C00B8DD3B69012B08D03B69052B05D02B4BE1
:10576C00180000F063F8002327E0294B180000F024
:10577C005DF8284AB96C1423FB181800FFF724FBBA
:10578C00254AB96C1423FB181800FFF71DFB234B9B
:10579C00234AB96C14203818FFF716FB214AB96C50
:1057AC001423FB181800FFF70FFB1F4AB96C1423C6
:1057BC00FB181800FFF708FB01231800BD4615B0B5
:1057CC0090BDC04638A30008649F0008C89F00081D
:1057DC0048A3000868A3000874A300087CA3000871
:1057EC00B80B000088A300088813000094A30008DD
:1057FC003CA10008D4A3000800A000080CA00008DD
:10580C00F8A3000818A400084CA0000834A4000851
:10581C0060A40008289F000870A100081800002050
:10582C0090A10008ACA10008BCA100080FB480B581
:10583C00A2B000AF9423FB187B607B689022BA184F
:10584C00126808217818802103F00AF80823FB1845
:10585C007F22002199540823FB18180001F026FE22
:10586C00C046BD4622B080BC08BC04B0184700003E
:10587C0080B588B000AF786039603B68BB617B68ED
:10588C00002B03D07B68180001F010FE0023FB6195
:10589C005DE0FB69BA69D2181723FB1812781A70ED
:1058AC001723FB181B780D2B16D004DC092B18D0F2
:1058BC000A2B0CD024E0272B1DD05C2B02D0222BE2
:1058CC0014D01DE0294B180001F0F0FD3CE0284BF2
:1058DC00180001F0EBFD37E0264B180001F0E6FD57
:1058EC0032E0254B180001F0E1FD2DE0234B1800B0
:1058FC0001F0DCFD28E0224B180001F0D7FD23E07D
:10590C001723FB181B781F2B0ED81723FB181A789C
:10591C001C490C23FB18180002F01AFC0C23FB1872
:10592C00180001F0C3FD0EE00823FB181722BA186B
:10593C0012781A700823FB1800225A700823FB18DF
:10594C00180001F0B3FDC046FB690133FB61FB6934
:10595C00BA69D3181B78002B9BD10B4B180001F0A4
:10596C00A5FDC046BD4608B080BDC0467CA400085D
:10597C0080A4000884A4000888A400088CA4000853
:10598C0090A4000894A400089CA4000880B584B0DE
:10599C0000AF78600323FB607B681B78002B21D061
:1059AC007B681800FAF7B2FB03001A007B689A18A0
:1059BC000F4B1000190004231A0002F030F90CE010
:1059CC007A680C490C4B1800FFF742FD0300BB60D2
:1059DC00BB68002B01D0012305E0FB685A1EFA605E
:1059EC00002BEDD100231800BD4604B080BDC0468D
:1059FC00A0A40008CCA8000870A90008B0B5AAB0F3
:105A0C0004AFF860B9607A603B6001239022BA1849
:105A1C0013607B6819687B689B881C007B68DB883B
:105A2C001D007B681B89324A10203818029301959F
:105A3C0000940B00802102F059FBFB681800FAF768
:105A4C0065FB03009422BA1813607B68002B0ED000
:105A5C001023FB181800FAF759FB02009423FB18CB
:105A6C001B68D3180333BA68053A934215D3FB6805
:105A7C001800FFF78BFF031E04D100239022BA18E5
:105A8C00136003E002239022BA181360FB68002213
:105A9C001A7000239422BA1813609423FB181B6805
:105AAC00002B08D13B68A822BA1812681149F86873
:105ABC0002F04EFB0EE0FB681800FAF727FB030020
:105ACC001A00FB689A180C4B1000190002231A00DC
